:1000000010C02AC029C028C027C026C025C024C0CF
:1000100023C032C021C020C01FC01EC01DC01CC0D4
:100020001BC011241FBECFE5D2E0DEBFCDBF10E064
:10003000A0E6B0E0ECECF0E002C005900D92A03636
:10004000B107D9F710E0A0E6B0E001C01D92A036DC
:10005000B107E1F729D038C0D3CF83E389B988E964
:100060008AB986E880BD08955D9BFECF8CB908955E
:100070005F9BFECF8CB108951F920F920FB60F9227
:1000800011248F938CB185BB8F910F900FBE0F9071
:100090001F90189584EF91E028EC30E0F90131973A
:1000A000F1F70197D9F708958FEF84BB1ABA85BB92
:1000B00083E389B988E98AB986E880BD789489B3F1
:0C00C0005D9BFECF8CB9FBCFF894FFCF06
:00000001FF
