
Volo1.elf:     file format elf32-avr

Sections:
Idx Name          Size      VMA       LMA       File off  Algn
  0 .text         00001032  00000000  00000000  00000074  2**1
                  CONTENTS, ALLOC, LOAD, READONLY, CODE
  1 .data         00000108  00800060  00001032  000010a6  2**0
                  CONTENTS, ALLOC, LOAD, DATA
  2 .debug_aranges 00000020  00000000  00000000  000011ae  2**0
                  CONTENTS, READONLY, DEBUGGING
  3 .debug_pubnames 0000002d  00000000  00000000  000011ce  2**0
                  CONTENTS, READONLY, DEBUGGING
  4 .debug_info   000002b5  00000000  00000000  000011fb  2**0
                  CONTENTS, READONLY, DEBUGGING
  5 .debug_abbrev 00000149  00000000  00000000  000014b0  2**0
                  CONTENTS, READONLY, DEBUGGING
  6 .debug_line   000002d2  00000000  00000000  000015f9  2**0
                  CONTENTS, READONLY, DEBUGGING
  7 .debug_frame  00000040  00000000  00000000  000018cc  2**2
                  CONTENTS, READONLY, DEBUGGING
  8 .debug_str    000000ea  00000000  00000000  0000190c  2**0
                  CONTENTS, READONLY, DEBUGGING
  9 .debug_loc    000002dd  00000000  00000000  000019f6  2**0
                  CONTENTS, READONLY, DEBUGGING
 10 .debug_ranges 00000078  00000000  00000000  00001cd3  2**0
                  CONTENTS, READONLY, DEBUGGING
Disassembly of section .text:

00000000 <__vectors>:
       0:	10 c0       	rjmp	.+32     	; 0x22 <__ctors_end>
       2:	2a c0       	rjmp	.+84     	; 0x58 <__bad_interrupt>
       4:	29 c0       	rjmp	.+82     	; 0x58 <__bad_interrupt>
       6:	28 c0       	rjmp	.+80     	; 0x58 <__bad_interrupt>
       8:	27 c0       	rjmp	.+78     	; 0x58 <__bad_interrupt>
       a:	26 c0       	rjmp	.+76     	; 0x58 <__bad_interrupt>
       c:	25 c0       	rjmp	.+74     	; 0x58 <__bad_interrupt>
       e:	24 c0       	rjmp	.+72     	; 0x58 <__bad_interrupt>
      10:	23 c0       	rjmp	.+70     	; 0x58 <__bad_interrupt>
      12:	22 c0       	rjmp	.+68     	; 0x58 <__bad_interrupt>
      14:	21 c0       	rjmp	.+66     	; 0x58 <__bad_interrupt>
      16:	20 c0       	rjmp	.+64     	; 0x58 <__bad_interrupt>
      18:	1f c0       	rjmp	.+62     	; 0x58 <__bad_interrupt>
      1a:	1e c0       	rjmp	.+60     	; 0x58 <__bad_interrupt>
      1c:	1d c0       	rjmp	.+58     	; 0x58 <__bad_interrupt>
      1e:	1c c0       	rjmp	.+56     	; 0x58 <__bad_interrupt>
      20:	1b c0       	rjmp	.+54     	; 0x58 <__bad_interrupt>

00000022 <__ctors_end>:
      22:	11 24       	eor	r1, r1
      24:	1f be       	out	0x3f, r1	; 63
      26:	cf e5       	ldi	r28, 0x5F	; 95
      28:	d2 e0       	ldi	r29, 0x02	; 2
      2a:	de bf       	out	0x3e, r29	; 62
      2c:	cd bf       	out	0x3d, r28	; 61

0000002e <__do_copy_data>:
      2e:	11 e0       	ldi	r17, 0x01	; 1
      30:	a0 e6       	ldi	r26, 0x60	; 96
      32:	b0 e0       	ldi	r27, 0x00	; 0
      34:	e2 e3       	ldi	r30, 0x32	; 50
      36:	f0 e1       	ldi	r31, 0x10	; 16
      38:	02 c0       	rjmp	.+4      	; 0x3e <.do_copy_data_start>

0000003a <.do_copy_data_loop>:
      3a:	05 90       	lpm	r0, Z+
      3c:	0d 92       	st	X+, r0

0000003e <.do_copy_data_start>:
      3e:	a8 36       	cpi	r26, 0x68	; 104
      40:	b1 07       	cpc	r27, r17
      42:	d9 f7       	brne	.-10     	; 0x3a <.do_copy_data_loop>

00000044 <__do_clear_bss>:
      44:	11 e0       	ldi	r17, 0x01	; 1
      46:	a8 e6       	ldi	r26, 0x68	; 104
      48:	b1 e0       	ldi	r27, 0x01	; 1
      4a:	01 c0       	rjmp	.+2      	; 0x4e <.do_clear_bss_start>

0000004c <.do_clear_bss_loop>:
      4c:	1d 92       	st	X+, r1

0000004e <.do_clear_bss_start>:
      4e:	a8 36       	cpi	r26, 0x68	; 104
      50:	b1 07       	cpc	r27, r17
      52:	e1 f7       	brne	.-8      	; 0x4c <.do_clear_bss_loop>
      54:	e8 d0       	rcall	.+464    	; 0x226 <main>
      56:	eb c7       	rjmp	.+4054   	; 0x102e <_exit>

00000058 <__bad_interrupt>:
      58:	d3 cf       	rjmp	.-90     	; 0x0 <__vectors>

0000005a <ton>:
#define H 20
#define C1 10



void ton(uint8_t hoehe, int laenge){
      5a:	2f 92       	push	r2
      5c:	3f 92       	push	r3
      5e:	4f 92       	push	r4
      60:	5f 92       	push	r5
      62:	6f 92       	push	r6
      64:	7f 92       	push	r7
      66:	8f 92       	push	r8
      68:	9f 92       	push	r9
      6a:	af 92       	push	r10
      6c:	bf 92       	push	r11
      6e:	cf 92       	push	r12
      70:	df 92       	push	r13
      72:	ef 92       	push	r14
      74:	ff 92       	push	r15
      76:	0f 93       	push	r16
      78:	1f 93       	push	r17
      7a:	cf 93       	push	r28
      7c:	df 93       	push	r29
      7e:	2b 01       	movw	r4, r22
      80:	c0 e0       	ldi	r28, 0x00	; 0
      82:	d0 e0       	ldi	r29, 0x00	; 0
	
	int i;
	for(i=0; i<laenge; i++){
		PORTB ^= (1<<PB3);
		_delay_us(hoehe);
      84:	68 2e       	mov	r6, r24
      86:	77 24       	eor	r7, r7
      88:	88 24       	eor	r8, r8
      8a:	99 24       	eor	r9, r9
    milliseconds can be achieved.
 */
void
_delay_loop_2(uint16_t __count)
{
	__asm__ volatile (
      8c:	88 ec       	ldi	r24, 0xC8	; 200
      8e:	28 2e       	mov	r2, r24
      90:	31 2c       	mov	r3, r1
      92:	65 c0       	rjmp	.+202    	; 0x15e <ton+0x104>

void ton(uint8_t hoehe, int laenge){
	
	int i;
	for(i=0; i<laenge; i++){
		PORTB ^= (1<<PB3);
      94:	88 b3       	in	r24, 0x18	; 24
      96:	98 e0       	ldi	r25, 0x08	; 8
      98:	89 27       	eor	r24, r25
      9a:	88 bb       	out	0x18, r24	; 24
		_delay_us(hoehe);
      9c:	c4 01       	movw	r24, r8
      9e:	b3 01       	movw	r22, r6
      a0:	25 d5       	rcall	.+2634   	; 0xaec <__floatunsisf>
      a2:	5b 01       	movw	r10, r22
      a4:	6c 01       	movw	r12, r24
 */
void
_delay_us(double __us)
{
	uint8_t __ticks;
	double __tmp = ((F_CPU) / 3e6) * __us;
      a6:	2b ea       	ldi	r18, 0xAB	; 171
      a8:	3a ea       	ldi	r19, 0xAA	; 170
      aa:	4a e2       	ldi	r20, 0x2A	; 42
      ac:	50 e4       	ldi	r21, 0x40	; 64
      ae:	b2 d2       	rcall	.+1380   	; 0x614 <__mulsf3>
      b0:	7b 01       	movw	r14, r22
      b2:	8c 01       	movw	r16, r24
	if (__tmp < 1.0)
      b4:	20 e0       	ldi	r18, 0x00	; 0
      b6:	30 e0       	ldi	r19, 0x00	; 0
      b8:	40 e8       	ldi	r20, 0x80	; 128
      ba:	5f e3       	ldi	r21, 0x3F	; 63
      bc:	9b d4       	rcall	.+2358   	; 0x9f4 <__ltsf2>
      be:	88 23       	and	r24, r24
      c0:	14 f4       	brge	.+4      	; 0xc6 <ton+0x6c>
      c2:	61 e0       	ldi	r22, 0x01	; 1
      c4:	49 c0       	rjmp	.+146    	; 0x158 <ton+0xfe>
		__ticks = 1;
	else if (__tmp > 255)
      c6:	20 e0       	ldi	r18, 0x00	; 0
      c8:	30 e0       	ldi	r19, 0x00	; 0
      ca:	4f e7       	ldi	r20, 0x7F	; 127
      cc:	53 e4       	ldi	r21, 0x43	; 67
      ce:	c8 01       	movw	r24, r16
      d0:	b7 01       	movw	r22, r14
      d2:	3a d4       	rcall	.+2164   	; 0x948 <__gtsf2>
      d4:	18 16       	cp	r1, r24
      d6:	0c f0       	brlt	.+2      	; 0xda <ton+0x80>
      d8:	3c c0       	rjmp	.+120    	; 0x152 <ton+0xf8>
	{
		_delay_ms(__us / 1000.0);
      da:	20 e0       	ldi	r18, 0x00	; 0
      dc:	30 e0       	ldi	r19, 0x00	; 0
      de:	4a e7       	ldi	r20, 0x7A	; 122
      e0:	54 e4       	ldi	r21, 0x44	; 68
      e2:	c6 01       	movw	r24, r12
      e4:	b5 01       	movw	r22, r10
      e6:	8b d3       	rcall	.+1814   	; 0x7fe <__divsf3>
      e8:	5b 01       	movw	r10, r22
      ea:	6c 01       	movw	r12, r24
 */
void
_delay_ms(double __ms)
{
	uint16_t __ticks;
	double __tmp = ((F_CPU) / 4e3) * __ms;
      ec:	20 e0       	ldi	r18, 0x00	; 0
      ee:	30 e0       	ldi	r19, 0x00	; 0
      f0:	4a ef       	ldi	r20, 0xFA	; 250
      f2:	54 e4       	ldi	r21, 0x44	; 68
      f4:	8f d2       	rcall	.+1310   	; 0x614 <__mulsf3>
      f6:	7b 01       	movw	r14, r22
      f8:	8c 01       	movw	r16, r24
	if (__tmp < 1.0)
      fa:	20 e0       	ldi	r18, 0x00	; 0
      fc:	30 e0       	ldi	r19, 0x00	; 0
      fe:	40 e8       	ldi	r20, 0x80	; 128
     100:	5f e3       	ldi	r21, 0x3F	; 63
     102:	78 d4       	rcall	.+2288   	; 0x9f4 <__ltsf2>
     104:	88 23       	and	r24, r24
     106:	1c f4       	brge	.+6      	; 0x10e <ton+0xb4>
     108:	61 e0       	ldi	r22, 0x01	; 1
     10a:	70 e0       	ldi	r23, 0x00	; 0
     10c:	1e c0       	rjmp	.+60     	; 0x14a <ton+0xf0>
		__ticks = 1;
	else if (__tmp > 65535)
     10e:	20 e0       	ldi	r18, 0x00	; 0
     110:	3f ef       	ldi	r19, 0xFF	; 255
     112:	4f e7       	ldi	r20, 0x7F	; 127
     114:	57 e4       	ldi	r21, 0x47	; 71
     116:	c8 01       	movw	r24, r16
     118:	b7 01       	movw	r22, r14
     11a:	16 d4       	rcall	.+2092   	; 0x948 <__gtsf2>
     11c:	18 16       	cp	r1, r24
     11e:	94 f4       	brge	.+36     	; 0x144 <ton+0xea>
	{
		//	__ticks = requested delay in 1/10 ms
		__ticks = (uint16_t) (__ms * 10.0);
     120:	20 e0       	ldi	r18, 0x00	; 0
     122:	30 e0       	ldi	r19, 0x00	; 0
     124:	40 e2       	ldi	r20, 0x20	; 32
     126:	51 e4       	ldi	r21, 0x41	; 65
     128:	c6 01       	movw	r24, r12
     12a:	b5 01       	movw	r22, r10
     12c:	73 d2       	rcall	.+1254   	; 0x614 <__mulsf3>
     12e:	ae d0       	rcall	.+348    	; 0x28c <__fixunssfsi>
     130:	05 c0       	rjmp	.+10     	; 0x13c <ton+0xe2>
     132:	c1 01       	movw	r24, r2
     134:	01 97       	sbiw	r24, 0x01	; 1
     136:	f1 f7       	brne	.-4      	; 0x134 <ton+0xda>
		while(__ticks)
		{
			// wait 1/10 ms
			_delay_loop_2(((F_CPU) / 4e3) / 10);
			__ticks --;
     138:	61 50       	subi	r22, 0x01	; 1
     13a:	70 40       	sbci	r23, 0x00	; 0
		__ticks = 1;
	else if (__tmp > 65535)
	{
		//	__ticks = requested delay in 1/10 ms
		__ticks = (uint16_t) (__ms * 10.0);
		while(__ticks)
     13c:	61 15       	cp	r22, r1
     13e:	71 05       	cpc	r23, r1
     140:	c1 f7       	brne	.-16     	; 0x132 <ton+0xd8>
     142:	0c c0       	rjmp	.+24     	; 0x15c <ton+0x102>
			__ticks --;
		}
		return;
	}
	else
		__ticks = (uint16_t)__tmp;
     144:	c8 01       	movw	r24, r16
     146:	b7 01       	movw	r22, r14
     148:	a1 d0       	rcall	.+322    	; 0x28c <__fixunssfsi>
     14a:	cb 01       	movw	r24, r22
     14c:	01 97       	sbiw	r24, 0x01	; 1
     14e:	f1 f7       	brne	.-4      	; 0x14c <ton+0xf2>
     150:	05 c0       	rjmp	.+10     	; 0x15c <ton+0x102>
	{
		_delay_ms(__us / 1000.0);
		return;
	}
	else
		__ticks = (uint8_t)__tmp;
     152:	c8 01       	movw	r24, r16
     154:	b7 01       	movw	r22, r14
     156:	9a d0       	rcall	.+308    	; 0x28c <__fixunssfsi>
    can be achieved.
*/
void
_delay_loop_1(uint8_t __count)
{
	__asm__ volatile (
     158:	6a 95       	dec	r22
     15a:	f1 f7       	brne	.-4      	; 0x158 <ton+0xfe>


void ton(uint8_t hoehe, int laenge){
	
	int i;
	for(i=0; i<laenge; i++){
     15c:	21 96       	adiw	r28, 0x01	; 1
     15e:	c4 15       	cp	r28, r4
     160:	d5 05       	cpc	r29, r5
     162:	0c f4       	brge	.+2      	; 0x166 <ton+0x10c>
     164:	97 cf       	rjmp	.-210    	; 0x94 <ton+0x3a>
		PORTB ^= (1<<PB3);
		_delay_us(hoehe);
	}

}
     166:	df 91       	pop	r29
     168:	cf 91       	pop	r28
     16a:	1f 91       	pop	r17
     16c:	0f 91       	pop	r16
     16e:	ff 90       	pop	r15
     170:	ef 90       	pop	r14
     172:	df 90       	pop	r13
     174:	cf 90       	pop	r12
     176:	bf 90       	pop	r11
     178:	af 90       	pop	r10
     17a:	9f 90       	pop	r9
     17c:	8f 90       	pop	r8
     17e:	7f 90       	pop	r7
     180:	6f 90       	pop	r6
     182:	5f 90       	pop	r5
     184:	4f 90       	pop	r4
     186:	3f 90       	pop	r3
     188:	2f 90       	pop	r2
     18a:	08 95       	ret

0000018c <pause>:

void pause(uint8_t delay){
     18c:	af 92       	push	r10
     18e:	bf 92       	push	r11
     190:	cf 92       	push	r12
     192:	df 92       	push	r13
     194:	ef 92       	push	r14
     196:	ff 92       	push	r15
     198:	0f 93       	push	r16
     19a:	1f 93       	push	r17
	_delay_ms(delay);
     19c:	90 e0       	ldi	r25, 0x00	; 0
     19e:	a0 e0       	ldi	r26, 0x00	; 0
     1a0:	b0 e0       	ldi	r27, 0x00	; 0
     1a2:	bc 01       	movw	r22, r24
     1a4:	cd 01       	movw	r24, r26
     1a6:	a2 d4       	rcall	.+2372   	; 0xaec <__floatunsisf>
     1a8:	5b 01       	movw	r10, r22
     1aa:	6c 01       	movw	r12, r24
 */
void
_delay_ms(double __ms)
{
	uint16_t __ticks;
	double __tmp = ((F_CPU) / 4e3) * __ms;
     1ac:	20 e0       	ldi	r18, 0x00	; 0
     1ae:	30 e0       	ldi	r19, 0x00	; 0
     1b0:	4a ef       	ldi	r20, 0xFA	; 250
     1b2:	54 e4       	ldi	r21, 0x44	; 68
     1b4:	2f d2       	rcall	.+1118   	; 0x614 <__mulsf3>
     1b6:	7b 01       	movw	r14, r22
     1b8:	8c 01       	movw	r16, r24
	if (__tmp < 1.0)
     1ba:	20 e0       	ldi	r18, 0x00	; 0
     1bc:	30 e0       	ldi	r19, 0x00	; 0
     1be:	40 e8       	ldi	r20, 0x80	; 128
     1c0:	5f e3       	ldi	r21, 0x3F	; 63
     1c2:	18 d4       	rcall	.+2096   	; 0x9f4 <__ltsf2>
     1c4:	88 23       	and	r24, r24
     1c6:	1c f4       	brge	.+6      	; 0x1ce <pause+0x42>
     1c8:	61 e0       	ldi	r22, 0x01	; 1
     1ca:	70 e0       	ldi	r23, 0x00	; 0
     1cc:	20 c0       	rjmp	.+64     	; 0x20e <pause+0x82>
		__ticks = 1;
	else if (__tmp > 65535)
     1ce:	20 e0       	ldi	r18, 0x00	; 0
     1d0:	3f ef       	ldi	r19, 0xFF	; 255
     1d2:	4f e7       	ldi	r20, 0x7F	; 127
     1d4:	57 e4       	ldi	r21, 0x47	; 71
     1d6:	c8 01       	movw	r24, r16
     1d8:	b7 01       	movw	r22, r14
     1da:	b6 d3       	rcall	.+1900   	; 0x948 <__gtsf2>
     1dc:	18 16       	cp	r1, r24
     1de:	a4 f4       	brge	.+40     	; 0x208 <pause+0x7c>
	{
		//	__ticks = requested delay in 1/10 ms
		__ticks = (uint16_t) (__ms * 10.0);
     1e0:	20 e0       	ldi	r18, 0x00	; 0
     1e2:	30 e0       	ldi	r19, 0x00	; 0
     1e4:	40 e2       	ldi	r20, 0x20	; 32
     1e6:	51 e4       	ldi	r21, 0x41	; 65
     1e8:	c6 01       	movw	r24, r12
     1ea:	b5 01       	movw	r22, r10
     1ec:	13 d2       	rcall	.+1062   	; 0x614 <__mulsf3>
     1ee:	4e d0       	rcall	.+156    	; 0x28c <__fixunssfsi>
    milliseconds can be achieved.
 */
void
_delay_loop_2(uint16_t __count)
{
	__asm__ volatile (
     1f0:	88 ec       	ldi	r24, 0xC8	; 200
     1f2:	90 e0       	ldi	r25, 0x00	; 0
     1f4:	05 c0       	rjmp	.+10     	; 0x200 <pause+0x74>
     1f6:	fc 01       	movw	r30, r24
     1f8:	31 97       	sbiw	r30, 0x01	; 1
     1fa:	f1 f7       	brne	.-4      	; 0x1f8 <pause+0x6c>
		while(__ticks)
		{
			// wait 1/10 ms
			_delay_loop_2(((F_CPU) / 4e3) / 10);
			__ticks --;
     1fc:	61 50       	subi	r22, 0x01	; 1
     1fe:	70 40       	sbci	r23, 0x00	; 0
		__ticks = 1;
	else if (__tmp > 65535)
	{
		//	__ticks = requested delay in 1/10 ms
		__ticks = (uint16_t) (__ms * 10.0);
		while(__ticks)
     200:	61 15       	cp	r22, r1
     202:	71 05       	cpc	r23, r1
     204:	c1 f7       	brne	.-16     	; 0x1f6 <pause+0x6a>
     206:	06 c0       	rjmp	.+12     	; 0x214 <pause+0x88>
			__ticks --;
		}
		return;
	}
	else
		__ticks = (uint16_t)__tmp;
     208:	c8 01       	movw	r24, r16
     20a:	b7 01       	movw	r22, r14
     20c:	3f d0       	rcall	.+126    	; 0x28c <__fixunssfsi>
     20e:	cb 01       	movw	r24, r22
     210:	01 97       	sbiw	r24, 0x01	; 1
     212:	f1 f7       	brne	.-4      	; 0x210 <pause+0x84>
}
     214:	1f 91       	pop	r17
     216:	0f 91       	pop	r16
     218:	ff 90       	pop	r15
     21a:	ef 90       	pop	r14
     21c:	df 90       	pop	r13
     21e:	cf 90       	pop	r12
     220:	bf 90       	pop	r11
     222:	af 90       	pop	r10
     224:	08 95       	ret

00000226 <main>:



int main()
{
     226:	8f ef       	ldi	r24, 0xFF	; 255
     228:	87 bb       	out	0x17, r24	; 23
	DDRB	= 0xFF; //C auf ausgang
	DDRA	= 0x00; //A = eingang
     22a:	1a ba       	out	0x1a, r1	; 26
	PORTB	= 0b00000000; // alle lampen aus
     22c:	18 ba       	out	0x18, r1	; 24

	while(1){
		ton(C, 500); //C
     22e:	64 ef       	ldi	r22, 0xF4	; 244
     230:	71 e0       	ldi	r23, 0x01	; 1
     232:	84 ef       	ldi	r24, 0xF4	; 244
     234:	12 df       	rcall	.-476    	; 0x5a <ton>
		pause(1000);
     236:	88 ee       	ldi	r24, 0xE8	; 232
     238:	a9 df       	rcall	.-174    	; 0x18c <pause>
		ton(D, 500); //D
     23a:	64 ef       	ldi	r22, 0xF4	; 244
     23c:	71 e0       	ldi	r23, 0x01	; 1
     23e:	80 e9       	ldi	r24, 0x90	; 144
     240:	0c df       	rcall	.-488    	; 0x5a <ton>
		pause(1000);
     242:	88 ee       	ldi	r24, 0xE8	; 232
     244:	a3 df       	rcall	.-186    	; 0x18c <pause>
		ton(E, 500); //D
     246:	64 ef       	ldi	r22, 0xF4	; 244
     248:	71 e0       	ldi	r23, 0x01	; 1
     24a:	8c e2       	ldi	r24, 0x2C	; 44
     24c:	06 df       	rcall	.-500    	; 0x5a <ton>
		pause(1000);
     24e:	88 ee       	ldi	r24, 0xE8	; 232
     250:	9d df       	rcall	.-198    	; 0x18c <pause>
		ton(F, 500); //D
     252:	64 ef       	ldi	r22, 0xF4	; 244
     254:	71 e0       	ldi	r23, 0x01	; 1
     256:	88 ec       	ldi	r24, 0xC8	; 200
     258:	00 df       	rcall	.-512    	; 0x5a <ton>
		pause(1000);
     25a:	88 ee       	ldi	r24, 0xE8	; 232
     25c:	97 df       	rcall	.-210    	; 0x18c <pause>
		ton(G, 500); //D
     25e:	64 ef       	ldi	r22, 0xF4	; 244
     260:	71 e0       	ldi	r23, 0x01	; 1
     262:	84 e6       	ldi	r24, 0x64	; 100
     264:	fa de       	rcall	.-524    	; 0x5a <ton>
		pause(1000);
     266:	88 ee       	ldi	r24, 0xE8	; 232
     268:	91 df       	rcall	.-222    	; 0x18c <pause>
		ton(A, 500); //D
     26a:	64 ef       	ldi	r22, 0xF4	; 244
     26c:	71 e0       	ldi	r23, 0x01	; 1
     26e:	82 e3       	ldi	r24, 0x32	; 50
     270:	f4 de       	rcall	.-536    	; 0x5a <ton>
		pause(1000);
     272:	88 ee       	ldi	r24, 0xE8	; 232
     274:	8b df       	rcall	.-234    	; 0x18c <pause>
		ton(H, 500); //D
     276:	64 ef       	ldi	r22, 0xF4	; 244
     278:	71 e0       	ldi	r23, 0x01	; 1
     27a:	84 e1       	ldi	r24, 0x14	; 20
     27c:	ee de       	rcall	.-548    	; 0x5a <ton>
		pause(1000);
     27e:	88 ee       	ldi	r24, 0xE8	; 232
     280:	85 df       	rcall	.-246    	; 0x18c <pause>
		ton(C1, 500); //D
     282:	64 ef       	ldi	r22, 0xF4	; 244
     284:	71 e0       	ldi	r23, 0x01	; 1
     286:	8a e0       	ldi	r24, 0x0A	; 10
     288:	e8 de       	rcall	.-560    	; 0x5a <ton>
     28a:	d1 cf       	rjmp	.-94     	; 0x22e <main+0x8>

0000028c <__fixunssfsi>:
     28c:	ef 92       	push	r14
     28e:	ff 92       	push	r15
     290:	0f 93       	push	r16
     292:	1f 93       	push	r17
     294:	7b 01       	movw	r14, r22
     296:	8c 01       	movw	r16, r24
     298:	20 e0       	ldi	r18, 0x00	; 0
     29a:	30 e0       	ldi	r19, 0x00	; 0
     29c:	40 e0       	ldi	r20, 0x00	; 0
     29e:	5f e4       	ldi	r21, 0x4F	; 79
     2a0:	7e d3       	rcall	.+1788   	; 0x99e <__gesf2>
     2a2:	88 23       	and	r24, r24
     2a4:	7c f0       	brlt	.+30     	; 0x2c4 <__fixunssfsi+0x38>
     2a6:	20 e0       	ldi	r18, 0x00	; 0
     2a8:	30 e0       	ldi	r19, 0x00	; 0
     2aa:	40 e0       	ldi	r20, 0x00	; 0
     2ac:	5f e4       	ldi	r21, 0x4F	; 79
     2ae:	c8 01       	movw	r24, r16
     2b0:	b7 01       	movw	r22, r14
     2b2:	5e d1       	rcall	.+700    	; 0x570 <__subsf3>
     2b4:	ca d3       	rcall	.+1940   	; 0xa4a <__fixsfsi>
     2b6:	9b 01       	movw	r18, r22
     2b8:	ac 01       	movw	r20, r24
     2ba:	20 50       	subi	r18, 0x00	; 0
     2bc:	30 40       	sbci	r19, 0x00	; 0
     2be:	40 40       	sbci	r20, 0x00	; 0
     2c0:	50 48       	sbci	r21, 0x80	; 128
     2c2:	05 c0       	rjmp	.+10     	; 0x2ce <__fixunssfsi+0x42>
     2c4:	c8 01       	movw	r24, r16
     2c6:	b7 01       	movw	r22, r14
     2c8:	c0 d3       	rcall	.+1920   	; 0xa4a <__fixsfsi>
     2ca:	9b 01       	movw	r18, r22
     2cc:	ac 01       	movw	r20, r24
     2ce:	b9 01       	movw	r22, r18
     2d0:	ca 01       	movw	r24, r20
     2d2:	1f 91       	pop	r17
     2d4:	0f 91       	pop	r16
     2d6:	ff 90       	pop	r15
     2d8:	ef 90       	pop	r14
     2da:	08 95       	ret

000002dc <_fpadd_parts>:
     2dc:	a0 e0       	ldi	r26, 0x00	; 0
     2de:	b0 e0       	ldi	r27, 0x00	; 0
     2e0:	e3 e7       	ldi	r30, 0x73	; 115
     2e2:	f1 e0       	ldi	r31, 0x01	; 1
     2e4:	6d c6       	rjmp	.+3290   	; 0xfc0 <__prologue_saves__>
     2e6:	dc 01       	movw	r26, r24
     2e8:	2b 01       	movw	r4, r22
     2ea:	fa 01       	movw	r30, r20
     2ec:	9c 91       	ld	r25, X
     2ee:	92 30       	cpi	r25, 0x02	; 2
     2f0:	08 f4       	brcc	.+2      	; 0x2f4 <_fpadd_parts+0x18>
     2f2:	39 c1       	rjmp	.+626    	; 0x566 <_fpadd_parts+0x28a>
     2f4:	eb 01       	movw	r28, r22
     2f6:	88 81       	ld	r24, Y
     2f8:	82 30       	cpi	r24, 0x02	; 2
     2fa:	08 f4       	brcc	.+2      	; 0x2fe <_fpadd_parts+0x22>
     2fc:	33 c1       	rjmp	.+614    	; 0x564 <_fpadd_parts+0x288>
     2fe:	94 30       	cpi	r25, 0x04	; 4
     300:	69 f4       	brne	.+26     	; 0x31c <_fpadd_parts+0x40>
     302:	84 30       	cpi	r24, 0x04	; 4
     304:	09 f0       	breq	.+2      	; 0x308 <_fpadd_parts+0x2c>
     306:	2f c1       	rjmp	.+606    	; 0x566 <_fpadd_parts+0x28a>
     308:	11 96       	adiw	r26, 0x01	; 1
     30a:	9c 91       	ld	r25, X
     30c:	11 97       	sbiw	r26, 0x01	; 1
     30e:	89 81       	ldd	r24, Y+1	; 0x01
     310:	98 17       	cp	r25, r24
     312:	09 f4       	brne	.+2      	; 0x316 <_fpadd_parts+0x3a>
     314:	28 c1       	rjmp	.+592    	; 0x566 <_fpadd_parts+0x28a>
     316:	a0 e6       	ldi	r26, 0x60	; 96
     318:	b0 e0       	ldi	r27, 0x00	; 0
     31a:	25 c1       	rjmp	.+586    	; 0x566 <_fpadd_parts+0x28a>
     31c:	84 30       	cpi	r24, 0x04	; 4
     31e:	09 f4       	brne	.+2      	; 0x322 <_fpadd_parts+0x46>
     320:	21 c1       	rjmp	.+578    	; 0x564 <_fpadd_parts+0x288>
     322:	82 30       	cpi	r24, 0x02	; 2
     324:	a9 f4       	brne	.+42     	; 0x350 <_fpadd_parts+0x74>
     326:	92 30       	cpi	r25, 0x02	; 2
     328:	09 f0       	breq	.+2      	; 0x32c <_fpadd_parts+0x50>
     32a:	1d c1       	rjmp	.+570    	; 0x566 <_fpadd_parts+0x28a>
     32c:	9a 01       	movw	r18, r20
     32e:	ad 01       	movw	r20, r26
     330:	88 e0       	ldi	r24, 0x08	; 8
     332:	ea 01       	movw	r28, r20
     334:	09 90       	ld	r0, Y+
     336:	ae 01       	movw	r20, r28
     338:	e9 01       	movw	r28, r18
     33a:	09 92       	st	Y+, r0
     33c:	9e 01       	movw	r18, r28
     33e:	81 50       	subi	r24, 0x01	; 1
     340:	c1 f7       	brne	.-16     	; 0x332 <_fpadd_parts+0x56>
     342:	e2 01       	movw	r28, r4
     344:	89 81       	ldd	r24, Y+1	; 0x01
     346:	11 96       	adiw	r26, 0x01	; 1
     348:	9c 91       	ld	r25, X
     34a:	89 23       	and	r24, r25
     34c:	81 83       	std	Z+1, r24	; 0x01
     34e:	08 c1       	rjmp	.+528    	; 0x560 <_fpadd_parts+0x284>
     350:	92 30       	cpi	r25, 0x02	; 2
     352:	09 f4       	brne	.+2      	; 0x356 <_fpadd_parts+0x7a>
     354:	07 c1       	rjmp	.+526    	; 0x564 <_fpadd_parts+0x288>
     356:	12 96       	adiw	r26, 0x02	; 2
     358:	2d 90       	ld	r2, X+
     35a:	3c 90       	ld	r3, X
     35c:	13 97       	sbiw	r26, 0x03	; 3
     35e:	eb 01       	movw	r28, r22
     360:	8a 81       	ldd	r24, Y+2	; 0x02
     362:	9b 81       	ldd	r25, Y+3	; 0x03
     364:	14 96       	adiw	r26, 0x04	; 4
     366:	ad 90       	ld	r10, X+
     368:	bd 90       	ld	r11, X+
     36a:	cd 90       	ld	r12, X+
     36c:	dc 90       	ld	r13, X
     36e:	17 97       	sbiw	r26, 0x07	; 7
     370:	ec 80       	ldd	r14, Y+4	; 0x04
     372:	fd 80       	ldd	r15, Y+5	; 0x05
     374:	0e 81       	ldd	r16, Y+6	; 0x06
     376:	1f 81       	ldd	r17, Y+7	; 0x07
     378:	91 01       	movw	r18, r2
     37a:	28 1b       	sub	r18, r24
     37c:	39 0b       	sbc	r19, r25
     37e:	b9 01       	movw	r22, r18
     380:	37 ff       	sbrs	r19, 7
     382:	04 c0       	rjmp	.+8      	; 0x38c <_fpadd_parts+0xb0>
     384:	66 27       	eor	r22, r22
     386:	77 27       	eor	r23, r23
     388:	62 1b       	sub	r22, r18
     38a:	73 0b       	sbc	r23, r19
     38c:	60 32       	cpi	r22, 0x20	; 32
     38e:	71 05       	cpc	r23, r1
     390:	0c f0       	brlt	.+2      	; 0x394 <_fpadd_parts+0xb8>
     392:	61 c0       	rjmp	.+194    	; 0x456 <_fpadd_parts+0x17a>
     394:	12 16       	cp	r1, r18
     396:	13 06       	cpc	r1, r19
     398:	6c f5       	brge	.+90     	; 0x3f4 <_fpadd_parts+0x118>
     39a:	37 01       	movw	r6, r14
     39c:	48 01       	movw	r8, r16
     39e:	06 2e       	mov	r0, r22
     3a0:	04 c0       	rjmp	.+8      	; 0x3aa <_fpadd_parts+0xce>
     3a2:	96 94       	lsr	r9
     3a4:	87 94       	ror	r8
     3a6:	77 94       	ror	r7
     3a8:	67 94       	ror	r6
     3aa:	0a 94       	dec	r0
     3ac:	d2 f7       	brpl	.-12     	; 0x3a2 <_fpadd_parts+0xc6>
     3ae:	21 e0       	ldi	r18, 0x01	; 1
     3b0:	30 e0       	ldi	r19, 0x00	; 0
     3b2:	40 e0       	ldi	r20, 0x00	; 0
     3b4:	50 e0       	ldi	r21, 0x00	; 0
     3b6:	04 c0       	rjmp	.+8      	; 0x3c0 <_fpadd_parts+0xe4>
     3b8:	22 0f       	add	r18, r18
     3ba:	33 1f       	adc	r19, r19
     3bc:	44 1f       	adc	r20, r20
     3be:	55 1f       	adc	r21, r21
     3c0:	6a 95       	dec	r22
     3c2:	d2 f7       	brpl	.-12     	; 0x3b8 <_fpadd_parts+0xdc>
     3c4:	21 50       	subi	r18, 0x01	; 1
     3c6:	30 40       	sbci	r19, 0x00	; 0
     3c8:	40 40       	sbci	r20, 0x00	; 0
     3ca:	50 40       	sbci	r21, 0x00	; 0
     3cc:	2e 21       	and	r18, r14
     3ce:	3f 21       	and	r19, r15
     3d0:	40 23       	and	r20, r16
     3d2:	51 23       	and	r21, r17
     3d4:	21 15       	cp	r18, r1
     3d6:	31 05       	cpc	r19, r1
     3d8:	41 05       	cpc	r20, r1
     3da:	51 05       	cpc	r21, r1
     3dc:	21 f0       	breq	.+8      	; 0x3e6 <_fpadd_parts+0x10a>
     3de:	21 e0       	ldi	r18, 0x01	; 1
     3e0:	30 e0       	ldi	r19, 0x00	; 0
     3e2:	40 e0       	ldi	r20, 0x00	; 0
     3e4:	50 e0       	ldi	r21, 0x00	; 0
     3e6:	79 01       	movw	r14, r18
     3e8:	8a 01       	movw	r16, r20
     3ea:	e6 28       	or	r14, r6
     3ec:	f7 28       	or	r15, r7
     3ee:	08 29       	or	r16, r8
     3f0:	19 29       	or	r17, r9
     3f2:	3c c0       	rjmp	.+120    	; 0x46c <_fpadd_parts+0x190>
     3f4:	23 2b       	or	r18, r19
     3f6:	d1 f1       	breq	.+116    	; 0x46c <_fpadd_parts+0x190>
     3f8:	26 0e       	add	r2, r22
     3fa:	37 1e       	adc	r3, r23
     3fc:	35 01       	movw	r6, r10
     3fe:	46 01       	movw	r8, r12
     400:	06 2e       	mov	r0, r22
     402:	04 c0       	rjmp	.+8      	; 0x40c <_fpadd_parts+0x130>
     404:	96 94       	lsr	r9
     406:	87 94       	ror	r8
     408:	77 94       	ror	r7
     40a:	67 94       	ror	r6
     40c:	0a 94       	dec	r0
     40e:	d2 f7       	brpl	.-12     	; 0x404 <_fpadd_parts+0x128>
     410:	21 e0       	ldi	r18, 0x01	; 1
     412:	30 e0       	ldi	r19, 0x00	; 0
     414:	40 e0       	ldi	r20, 0x00	; 0
     416:	50 e0       	ldi	r21, 0x00	; 0
     418:	04 c0       	rjmp	.+8      	; 0x422 <_fpadd_parts+0x146>
     41a:	22 0f       	add	r18, r18
     41c:	33 1f       	adc	r19, r19
     41e:	44 1f       	adc	r20, r20
     420:	55 1f       	adc	r21, r21
     422:	6a 95       	dec	r22
     424:	d2 f7       	brpl	.-12     	; 0x41a <_fpadd_parts+0x13e>
     426:	21 50       	subi	r18, 0x01	; 1
     428:	30 40       	sbci	r19, 0x00	; 0
     42a:	40 40       	sbci	r20, 0x00	; 0
     42c:	50 40       	sbci	r21, 0x00	; 0
     42e:	2a 21       	and	r18, r10
     430:	3b 21       	and	r19, r11
     432:	4c 21       	and	r20, r12
     434:	5d 21       	and	r21, r13
     436:	21 15       	cp	r18, r1
     438:	31 05       	cpc	r19, r1
     43a:	41 05       	cpc	r20, r1
     43c:	51 05       	cpc	r21, r1
     43e:	21 f0       	breq	.+8      	; 0x448 <_fpadd_parts+0x16c>
     440:	21 e0       	ldi	r18, 0x01	; 1
     442:	30 e0       	ldi	r19, 0x00	; 0
     444:	40 e0       	ldi	r20, 0x00	; 0
     446:	50 e0       	ldi	r21, 0x00	; 0
     448:	59 01       	movw	r10, r18
     44a:	6a 01       	movw	r12, r20
     44c:	a6 28       	or	r10, r6
     44e:	b7 28       	or	r11, r7
     450:	c8 28       	or	r12, r8
     452:	d9 28       	or	r13, r9
     454:	0b c0       	rjmp	.+22     	; 0x46c <_fpadd_parts+0x190>
     456:	82 15       	cp	r24, r2
     458:	93 05       	cpc	r25, r3
     45a:	2c f0       	brlt	.+10     	; 0x466 <_fpadd_parts+0x18a>
     45c:	1c 01       	movw	r2, r24
     45e:	aa 24       	eor	r10, r10
     460:	bb 24       	eor	r11, r11
     462:	65 01       	movw	r12, r10
     464:	03 c0       	rjmp	.+6      	; 0x46c <_fpadd_parts+0x190>
     466:	ee 24       	eor	r14, r14
     468:	ff 24       	eor	r15, r15
     46a:	87 01       	movw	r16, r14
     46c:	11 96       	adiw	r26, 0x01	; 1
     46e:	9c 91       	ld	r25, X
     470:	d2 01       	movw	r26, r4
     472:	11 96       	adiw	r26, 0x01	; 1
     474:	8c 91       	ld	r24, X
     476:	98 17       	cp	r25, r24
     478:	09 f4       	brne	.+2      	; 0x47c <_fpadd_parts+0x1a0>
     47a:	45 c0       	rjmp	.+138    	; 0x506 <_fpadd_parts+0x22a>
     47c:	99 23       	and	r25, r25
     47e:	39 f0       	breq	.+14     	; 0x48e <_fpadd_parts+0x1b2>
     480:	a8 01       	movw	r20, r16
     482:	97 01       	movw	r18, r14
     484:	2a 19       	sub	r18, r10
     486:	3b 09       	sbc	r19, r11
     488:	4c 09       	sbc	r20, r12
     48a:	5d 09       	sbc	r21, r13
     48c:	06 c0       	rjmp	.+12     	; 0x49a <_fpadd_parts+0x1be>
     48e:	a6 01       	movw	r20, r12
     490:	95 01       	movw	r18, r10
     492:	2e 19       	sub	r18, r14
     494:	3f 09       	sbc	r19, r15
     496:	40 0b       	sbc	r20, r16
     498:	51 0b       	sbc	r21, r17
     49a:	57 fd       	sbrc	r21, 7
     49c:	08 c0       	rjmp	.+16     	; 0x4ae <_fpadd_parts+0x1d2>
     49e:	11 82       	std	Z+1, r1	; 0x01
     4a0:	33 82       	std	Z+3, r3	; 0x03
     4a2:	22 82       	std	Z+2, r2	; 0x02
     4a4:	24 83       	std	Z+4, r18	; 0x04
     4a6:	35 83       	std	Z+5, r19	; 0x05
     4a8:	46 83       	std	Z+6, r20	; 0x06
     4aa:	57 83       	std	Z+7, r21	; 0x07
     4ac:	1d c0       	rjmp	.+58     	; 0x4e8 <_fpadd_parts+0x20c>
     4ae:	81 e0       	ldi	r24, 0x01	; 1
     4b0:	81 83       	std	Z+1, r24	; 0x01
     4b2:	33 82       	std	Z+3, r3	; 0x03
     4b4:	22 82       	std	Z+2, r2	; 0x02
     4b6:	88 27       	eor	r24, r24
     4b8:	99 27       	eor	r25, r25
     4ba:	dc 01       	movw	r26, r24
     4bc:	82 1b       	sub	r24, r18
     4be:	93 0b       	sbc	r25, r19
     4c0:	a4 0b       	sbc	r26, r20
     4c2:	b5 0b       	sbc	r27, r21
     4c4:	84 83       	std	Z+4, r24	; 0x04
     4c6:	95 83       	std	Z+5, r25	; 0x05
     4c8:	a6 83       	std	Z+6, r26	; 0x06
     4ca:	b7 83       	std	Z+7, r27	; 0x07
     4cc:	0d c0       	rjmp	.+26     	; 0x4e8 <_fpadd_parts+0x20c>
     4ce:	22 0f       	add	r18, r18
     4d0:	33 1f       	adc	r19, r19
     4d2:	44 1f       	adc	r20, r20
     4d4:	55 1f       	adc	r21, r21
     4d6:	24 83       	std	Z+4, r18	; 0x04
     4d8:	35 83       	std	Z+5, r19	; 0x05
     4da:	46 83       	std	Z+6, r20	; 0x06
     4dc:	57 83       	std	Z+7, r21	; 0x07
     4de:	82 81       	ldd	r24, Z+2	; 0x02
     4e0:	93 81       	ldd	r25, Z+3	; 0x03
     4e2:	01 97       	sbiw	r24, 0x01	; 1
     4e4:	93 83       	std	Z+3, r25	; 0x03
     4e6:	82 83       	std	Z+2, r24	; 0x02
     4e8:	24 81       	ldd	r18, Z+4	; 0x04
     4ea:	35 81       	ldd	r19, Z+5	; 0x05
     4ec:	46 81       	ldd	r20, Z+6	; 0x06
     4ee:	57 81       	ldd	r21, Z+7	; 0x07
     4f0:	da 01       	movw	r26, r20
     4f2:	c9 01       	movw	r24, r18
     4f4:	01 97       	sbiw	r24, 0x01	; 1
     4f6:	a1 09       	sbc	r26, r1
     4f8:	b1 09       	sbc	r27, r1
     4fa:	8f 5f       	subi	r24, 0xFF	; 255
     4fc:	9f 4f       	sbci	r25, 0xFF	; 255
     4fe:	af 4f       	sbci	r26, 0xFF	; 255
     500:	bf 43       	sbci	r27, 0x3F	; 63
     502:	28 f3       	brcs	.-54     	; 0x4ce <_fpadd_parts+0x1f2>
     504:	0b c0       	rjmp	.+22     	; 0x51c <_fpadd_parts+0x240>
     506:	91 83       	std	Z+1, r25	; 0x01
     508:	33 82       	std	Z+3, r3	; 0x03
     50a:	22 82       	std	Z+2, r2	; 0x02
     50c:	ea 0c       	add	r14, r10
     50e:	fb 1c       	adc	r15, r11
     510:	0c 1d       	adc	r16, r12
     512:	1d 1d       	adc	r17, r13
     514:	e4 82       	std	Z+4, r14	; 0x04
     516:	f5 82       	std	Z+5, r15	; 0x05
     518:	06 83       	std	Z+6, r16	; 0x06
     51a:	17 83       	std	Z+7, r17	; 0x07
     51c:	83 e0       	ldi	r24, 0x03	; 3
     51e:	80 83       	st	Z, r24
     520:	24 81       	ldd	r18, Z+4	; 0x04
     522:	35 81       	ldd	r19, Z+5	; 0x05
     524:	46 81       	ldd	r20, Z+6	; 0x06
     526:	57 81       	ldd	r21, Z+7	; 0x07
     528:	57 ff       	sbrs	r21, 7
     52a:	1a c0       	rjmp	.+52     	; 0x560 <_fpadd_parts+0x284>
     52c:	c9 01       	movw	r24, r18
     52e:	aa 27       	eor	r26, r26
     530:	97 fd       	sbrc	r25, 7
     532:	a0 95       	com	r26
     534:	ba 2f       	mov	r27, r26
     536:	81 70       	andi	r24, 0x01	; 1
     538:	90 70       	andi	r25, 0x00	; 0
     53a:	a0 70       	andi	r26, 0x00	; 0
     53c:	b0 70       	andi	r27, 0x00	; 0
     53e:	56 95       	lsr	r21
     540:	47 95       	ror	r20
     542:	37 95       	ror	r19
     544:	27 95       	ror	r18
     546:	82 2b       	or	r24, r18
     548:	93 2b       	or	r25, r19
     54a:	a4 2b       	or	r26, r20
     54c:	b5 2b       	or	r27, r21
     54e:	84 83       	std	Z+4, r24	; 0x04
     550:	95 83       	std	Z+5, r25	; 0x05
     552:	a6 83       	std	Z+6, r26	; 0x06
     554:	b7 83       	std	Z+7, r27	; 0x07
     556:	82 81       	ldd	r24, Z+2	; 0x02
     558:	93 81       	ldd	r25, Z+3	; 0x03
     55a:	01 96       	adiw	r24, 0x01	; 1
     55c:	93 83       	std	Z+3, r25	; 0x03
     55e:	82 83       	std	Z+2, r24	; 0x02
     560:	df 01       	movw	r26, r30
     562:	01 c0       	rjmp	.+2      	; 0x566 <_fpadd_parts+0x28a>
     564:	d2 01       	movw	r26, r4
     566:	cd 01       	movw	r24, r26
     568:	cd b7       	in	r28, 0x3d	; 61
     56a:	de b7       	in	r29, 0x3e	; 62
     56c:	e2 e1       	ldi	r30, 0x12	; 18
     56e:	44 c5       	rjmp	.+2696   	; 0xff8 <__epilogue_restores__>

00000570 <__subsf3>:
     570:	a0 e2       	ldi	r26, 0x20	; 32
     572:	b0 e0       	ldi	r27, 0x00	; 0
     574:	ed eb       	ldi	r30, 0xBD	; 189
     576:	f2 e0       	ldi	r31, 0x02	; 2
     578:	2f c5       	rjmp	.+2654   	; 0xfd8 <__prologue_saves__+0x18>
     57a:	69 83       	std	Y+1, r22	; 0x01
     57c:	7a 83       	std	Y+2, r23	; 0x02
     57e:	8b 83       	std	Y+3, r24	; 0x03
     580:	9c 83       	std	Y+4, r25	; 0x04
     582:	2d 83       	std	Y+5, r18	; 0x05
     584:	3e 83       	std	Y+6, r19	; 0x06
     586:	4f 83       	std	Y+7, r20	; 0x07
     588:	58 87       	std	Y+8, r21	; 0x08
     58a:	e9 e0       	ldi	r30, 0x09	; 9
     58c:	ee 2e       	mov	r14, r30
     58e:	f1 2c       	mov	r15, r1
     590:	ec 0e       	add	r14, r28
     592:	fd 1e       	adc	r15, r29
     594:	b7 01       	movw	r22, r14
     596:	ce 01       	movw	r24, r28
     598:	01 96       	adiw	r24, 0x01	; 1
     59a:	41 d4       	rcall	.+2178   	; 0xe1e <__unpack_f>
     59c:	8e 01       	movw	r16, r28
     59e:	0f 5e       	subi	r16, 0xEF	; 239
     5a0:	1f 4f       	sbci	r17, 0xFF	; 255
     5a2:	b8 01       	movw	r22, r16
     5a4:	ce 01       	movw	r24, r28
     5a6:	05 96       	adiw	r24, 0x05	; 5
     5a8:	3a d4       	rcall	.+2164   	; 0xe1e <__unpack_f>
     5aa:	8a 89       	ldd	r24, Y+18	; 0x12
     5ac:	91 e0       	ldi	r25, 0x01	; 1
     5ae:	89 27       	eor	r24, r25
     5b0:	8a 8b       	std	Y+18, r24	; 0x12
     5b2:	ae 01       	movw	r20, r28
     5b4:	47 5e       	subi	r20, 0xE7	; 231
     5b6:	5f 4f       	sbci	r21, 0xFF	; 255
     5b8:	b8 01       	movw	r22, r16
     5ba:	c7 01       	movw	r24, r14
     5bc:	8f de       	rcall	.-738    	; 0x2dc <_fpadd_parts>
     5be:	5a d3       	rcall	.+1716   	; 0xc74 <__pack_f>
     5c0:	a0 96       	adiw	r28, 0x20	; 32
     5c2:	e6 e0       	ldi	r30, 0x06	; 6
     5c4:	25 c5       	rjmp	.+2634   	; 0x1010 <__epilogue_restores__+0x18>

000005c6 <__addsf3>:
     5c6:	a0 e2       	ldi	r26, 0x20	; 32
     5c8:	b0 e0       	ldi	r27, 0x00	; 0
     5ca:	e8 ee       	ldi	r30, 0xE8	; 232
     5cc:	f2 e0       	ldi	r31, 0x02	; 2
     5ce:	04 c5       	rjmp	.+2568   	; 0xfd8 <__prologue_saves__+0x18>
     5d0:	69 83       	std	Y+1, r22	; 0x01
     5d2:	7a 83       	std	Y+2, r23	; 0x02
     5d4:	8b 83       	std	Y+3, r24	; 0x03
     5d6:	9c 83       	std	Y+4, r25	; 0x04
     5d8:	2d 83       	std	Y+5, r18	; 0x05
     5da:	3e 83       	std	Y+6, r19	; 0x06
     5dc:	4f 83       	std	Y+7, r20	; 0x07
     5de:	58 87       	std	Y+8, r21	; 0x08
     5e0:	f9 e0       	ldi	r31, 0x09	; 9
     5e2:	ef 2e       	mov	r14, r31
     5e4:	f1 2c       	mov	r15, r1
     5e6:	ec 0e       	add	r14, r28
     5e8:	fd 1e       	adc	r15, r29
     5ea:	b7 01       	movw	r22, r14
     5ec:	ce 01       	movw	r24, r28
     5ee:	01 96       	adiw	r24, 0x01	; 1
     5f0:	16 d4       	rcall	.+2092   	; 0xe1e <__unpack_f>
     5f2:	8e 01       	movw	r16, r28
     5f4:	0f 5e       	subi	r16, 0xEF	; 239
     5f6:	1f 4f       	sbci	r17, 0xFF	; 255
     5f8:	b8 01       	movw	r22, r16
     5fa:	ce 01       	movw	r24, r28
     5fc:	05 96       	adiw	r24, 0x05	; 5
     5fe:	0f d4       	rcall	.+2078   	; 0xe1e <__unpack_f>
     600:	ae 01       	movw	r20, r28
     602:	47 5e       	subi	r20, 0xE7	; 231
     604:	5f 4f       	sbci	r21, 0xFF	; 255
     606:	b8 01       	movw	r22, r16
     608:	c7 01       	movw	r24, r14
     60a:	68 de       	rcall	.-816    	; 0x2dc <_fpadd_parts>
     60c:	33 d3       	rcall	.+1638   	; 0xc74 <__pack_f>
     60e:	a0 96       	adiw	r28, 0x20	; 32
     610:	e6 e0       	ldi	r30, 0x06	; 6
     612:	fe c4       	rjmp	.+2556   	; 0x1010 <__epilogue_restores__+0x18>

00000614 <__mulsf3>:
     614:	a0 e2       	ldi	r26, 0x20	; 32
     616:	b0 e0       	ldi	r27, 0x00	; 0
     618:	ef e0       	ldi	r30, 0x0F	; 15
     61a:	f3 e0       	ldi	r31, 0x03	; 3
     61c:	d1 c4       	rjmp	.+2466   	; 0xfc0 <__prologue_saves__>
     61e:	69 83       	std	Y+1, r22	; 0x01
     620:	7a 83       	std	Y+2, r23	; 0x02
     622:	8b 83       	std	Y+3, r24	; 0x03
     624:	9c 83       	std	Y+4, r25	; 0x04
     626:	2d 83       	std	Y+5, r18	; 0x05
     628:	3e 83       	std	Y+6, r19	; 0x06
     62a:	4f 83       	std	Y+7, r20	; 0x07
     62c:	58 87       	std	Y+8, r21	; 0x08
     62e:	be 01       	movw	r22, r28
     630:	67 5f       	subi	r22, 0xF7	; 247
     632:	7f 4f       	sbci	r23, 0xFF	; 255
     634:	ce 01       	movw	r24, r28
     636:	01 96       	adiw	r24, 0x01	; 1
     638:	f2 d3       	rcall	.+2020   	; 0xe1e <__unpack_f>
     63a:	be 01       	movw	r22, r28
     63c:	6f 5e       	subi	r22, 0xEF	; 239
     63e:	7f 4f       	sbci	r23, 0xFF	; 255
     640:	ce 01       	movw	r24, r28
     642:	05 96       	adiw	r24, 0x05	; 5
     644:	ec d3       	rcall	.+2008   	; 0xe1e <__unpack_f>
     646:	99 85       	ldd	r25, Y+9	; 0x09
     648:	92 30       	cpi	r25, 0x02	; 2
     64a:	88 f0       	brcs	.+34     	; 0x66e <__mulsf3+0x5a>
     64c:	89 89       	ldd	r24, Y+17	; 0x11
     64e:	82 30       	cpi	r24, 0x02	; 2
     650:	c8 f0       	brcs	.+50     	; 0x684 <__mulsf3+0x70>
     652:	94 30       	cpi	r25, 0x04	; 4
     654:	19 f4       	brne	.+6      	; 0x65c <__mulsf3+0x48>
     656:	82 30       	cpi	r24, 0x02	; 2
     658:	51 f4       	brne	.+20     	; 0x66e <__mulsf3+0x5a>
     65a:	04 c0       	rjmp	.+8      	; 0x664 <__mulsf3+0x50>
     65c:	84 30       	cpi	r24, 0x04	; 4
     65e:	29 f4       	brne	.+10     	; 0x66a <__mulsf3+0x56>
     660:	92 30       	cpi	r25, 0x02	; 2
     662:	81 f4       	brne	.+32     	; 0x684 <__mulsf3+0x70>
     664:	80 e6       	ldi	r24, 0x60	; 96
     666:	90 e0       	ldi	r25, 0x00	; 0
     668:	c6 c0       	rjmp	.+396    	; 0x7f6 <__mulsf3+0x1e2>
     66a:	92 30       	cpi	r25, 0x02	; 2
     66c:	49 f4       	brne	.+18     	; 0x680 <__mulsf3+0x6c>
     66e:	20 e0       	ldi	r18, 0x00	; 0
     670:	9a 85       	ldd	r25, Y+10	; 0x0a
     672:	8a 89       	ldd	r24, Y+18	; 0x12
     674:	98 13       	cpse	r25, r24
     676:	21 e0       	ldi	r18, 0x01	; 1
     678:	2a 87       	std	Y+10, r18	; 0x0a
     67a:	ce 01       	movw	r24, r28
     67c:	09 96       	adiw	r24, 0x09	; 9
     67e:	bb c0       	rjmp	.+374    	; 0x7f6 <__mulsf3+0x1e2>
     680:	82 30       	cpi	r24, 0x02	; 2
     682:	49 f4       	brne	.+18     	; 0x696 <__mulsf3+0x82>
     684:	20 e0       	ldi	r18, 0x00	; 0
     686:	9a 85       	ldd	r25, Y+10	; 0x0a
     688:	8a 89       	ldd	r24, Y+18	; 0x12
     68a:	98 13       	cpse	r25, r24
     68c:	21 e0       	ldi	r18, 0x01	; 1
     68e:	2a 8b       	std	Y+18, r18	; 0x12
     690:	ce 01       	movw	r24, r28
     692:	41 96       	adiw	r24, 0x11	; 17
     694:	b0 c0       	rjmp	.+352    	; 0x7f6 <__mulsf3+0x1e2>
     696:	2d 84       	ldd	r2, Y+13	; 0x0d
     698:	3e 84       	ldd	r3, Y+14	; 0x0e
     69a:	4f 84       	ldd	r4, Y+15	; 0x0f
     69c:	58 88       	ldd	r5, Y+16	; 0x10
     69e:	6d 88       	ldd	r6, Y+21	; 0x15
     6a0:	7e 88       	ldd	r7, Y+22	; 0x16
     6a2:	8f 88       	ldd	r8, Y+23	; 0x17
     6a4:	98 8c       	ldd	r9, Y+24	; 0x18
     6a6:	ee 24       	eor	r14, r14
     6a8:	ff 24       	eor	r15, r15
     6aa:	87 01       	movw	r16, r14
     6ac:	aa 24       	eor	r10, r10
     6ae:	bb 24       	eor	r11, r11
     6b0:	65 01       	movw	r12, r10
     6b2:	40 e0       	ldi	r20, 0x00	; 0
     6b4:	50 e0       	ldi	r21, 0x00	; 0
     6b6:	60 e0       	ldi	r22, 0x00	; 0
     6b8:	70 e0       	ldi	r23, 0x00	; 0
     6ba:	e0 e0       	ldi	r30, 0x00	; 0
     6bc:	f0 e0       	ldi	r31, 0x00	; 0
     6be:	c1 01       	movw	r24, r2
     6c0:	81 70       	andi	r24, 0x01	; 1
     6c2:	90 70       	andi	r25, 0x00	; 0
     6c4:	89 2b       	or	r24, r25
     6c6:	e9 f0       	breq	.+58     	; 0x702 <__mulsf3+0xee>
     6c8:	e6 0c       	add	r14, r6
     6ca:	f7 1c       	adc	r15, r7
     6cc:	08 1d       	adc	r16, r8
     6ce:	19 1d       	adc	r17, r9
     6d0:	9a 01       	movw	r18, r20
     6d2:	ab 01       	movw	r20, r22
     6d4:	2a 0d       	add	r18, r10
     6d6:	3b 1d       	adc	r19, r11
     6d8:	4c 1d       	adc	r20, r12
     6da:	5d 1d       	adc	r21, r13
     6dc:	80 e0       	ldi	r24, 0x00	; 0
     6de:	90 e0       	ldi	r25, 0x00	; 0
     6e0:	a0 e0       	ldi	r26, 0x00	; 0
     6e2:	b0 e0       	ldi	r27, 0x00	; 0
     6e4:	e6 14       	cp	r14, r6
     6e6:	f7 04       	cpc	r15, r7
     6e8:	08 05       	cpc	r16, r8
     6ea:	19 05       	cpc	r17, r9
     6ec:	20 f4       	brcc	.+8      	; 0x6f6 <__mulsf3+0xe2>
     6ee:	81 e0       	ldi	r24, 0x01	; 1
     6f0:	90 e0       	ldi	r25, 0x00	; 0
     6f2:	a0 e0       	ldi	r26, 0x00	; 0
     6f4:	b0 e0       	ldi	r27, 0x00	; 0
     6f6:	ba 01       	movw	r22, r20
     6f8:	a9 01       	movw	r20, r18
     6fa:	48 0f       	add	r20, r24
     6fc:	59 1f       	adc	r21, r25
     6fe:	6a 1f       	adc	r22, r26
     700:	7b 1f       	adc	r23, r27
     702:	aa 0c       	add	r10, r10
     704:	bb 1c       	adc	r11, r11
     706:	cc 1c       	adc	r12, r12
     708:	dd 1c       	adc	r13, r13
     70a:	97 fe       	sbrs	r9, 7
     70c:	08 c0       	rjmp	.+16     	; 0x71e <__mulsf3+0x10a>
     70e:	81 e0       	ldi	r24, 0x01	; 1
     710:	90 e0       	ldi	r25, 0x00	; 0
     712:	a0 e0       	ldi	r26, 0x00	; 0
     714:	b0 e0       	ldi	r27, 0x00	; 0
     716:	a8 2a       	or	r10, r24
     718:	b9 2a       	or	r11, r25
     71a:	ca 2a       	or	r12, r26
     71c:	db 2a       	or	r13, r27
     71e:	31 96       	adiw	r30, 0x01	; 1
     720:	e0 32       	cpi	r30, 0x20	; 32
     722:	f1 05       	cpc	r31, r1
     724:	49 f0       	breq	.+18     	; 0x738 <__mulsf3+0x124>
     726:	66 0c       	add	r6, r6
     728:	77 1c       	adc	r7, r7
     72a:	88 1c       	adc	r8, r8
     72c:	99 1c       	adc	r9, r9
     72e:	56 94       	lsr	r5
     730:	47 94       	ror	r4
     732:	37 94       	ror	r3
     734:	27 94       	ror	r2
     736:	c3 cf       	rjmp	.-122    	; 0x6be <__mulsf3+0xaa>
     738:	fa 85       	ldd	r31, Y+10	; 0x0a
     73a:	ea 89       	ldd	r30, Y+18	; 0x12
     73c:	2b 89       	ldd	r18, Y+19	; 0x13
     73e:	3c 89       	ldd	r19, Y+20	; 0x14
     740:	8b 85       	ldd	r24, Y+11	; 0x0b
     742:	9c 85       	ldd	r25, Y+12	; 0x0c
     744:	28 0f       	add	r18, r24
     746:	39 1f       	adc	r19, r25
     748:	2e 5f       	subi	r18, 0xFE	; 254
     74a:	3f 4f       	sbci	r19, 0xFF	; 255
     74c:	17 c0       	rjmp	.+46     	; 0x77c <__mulsf3+0x168>
     74e:	ca 01       	movw	r24, r20
     750:	81 70       	andi	r24, 0x01	; 1
     752:	90 70       	andi	r25, 0x00	; 0
     754:	89 2b       	or	r24, r25
     756:	61 f0       	breq	.+24     	; 0x770 <__mulsf3+0x15c>
     758:	16 95       	lsr	r17
     75a:	07 95       	ror	r16
     75c:	f7 94       	ror	r15
     75e:	e7 94       	ror	r14
     760:	80 e0       	ldi	r24, 0x00	; 0
     762:	90 e0       	ldi	r25, 0x00	; 0
     764:	a0 e0       	ldi	r26, 0x00	; 0
     766:	b0 e8       	ldi	r27, 0x80	; 128
     768:	e8 2a       	or	r14, r24
     76a:	f9 2a       	or	r15, r25
     76c:	0a 2b       	or	r16, r26
     76e:	1b 2b       	or	r17, r27
     770:	76 95       	lsr	r23
     772:	67 95       	ror	r22
     774:	57 95       	ror	r21
     776:	47 95       	ror	r20
     778:	2f 5f       	subi	r18, 0xFF	; 255
     77a:	3f 4f       	sbci	r19, 0xFF	; 255
     77c:	77 fd       	sbrc	r23, 7
     77e:	e7 cf       	rjmp	.-50     	; 0x74e <__mulsf3+0x13a>
     780:	0c c0       	rjmp	.+24     	; 0x79a <__mulsf3+0x186>
     782:	44 0f       	add	r20, r20
     784:	55 1f       	adc	r21, r21
     786:	66 1f       	adc	r22, r22
     788:	77 1f       	adc	r23, r23
     78a:	17 fd       	sbrc	r17, 7
     78c:	41 60       	ori	r20, 0x01	; 1
     78e:	ee 0c       	add	r14, r14
     790:	ff 1c       	adc	r15, r15
     792:	00 1f       	adc	r16, r16
     794:	11 1f       	adc	r17, r17
     796:	21 50       	subi	r18, 0x01	; 1
     798:	30 40       	sbci	r19, 0x00	; 0
     79a:	40 30       	cpi	r20, 0x00	; 0
     79c:	90 e0       	ldi	r25, 0x00	; 0
     79e:	59 07       	cpc	r21, r25
     7a0:	90 e0       	ldi	r25, 0x00	; 0
     7a2:	69 07       	cpc	r22, r25
     7a4:	90 e4       	ldi	r25, 0x40	; 64
     7a6:	79 07       	cpc	r23, r25
     7a8:	60 f3       	brcs	.-40     	; 0x782 <__mulsf3+0x16e>
     7aa:	2b 8f       	std	Y+27, r18	; 0x1b
     7ac:	3c 8f       	std	Y+28, r19	; 0x1c
     7ae:	db 01       	movw	r26, r22
     7b0:	ca 01       	movw	r24, r20
     7b2:	8f 77       	andi	r24, 0x7F	; 127
     7b4:	90 70       	andi	r25, 0x00	; 0
     7b6:	a0 70       	andi	r26, 0x00	; 0
     7b8:	b0 70       	andi	r27, 0x00	; 0
     7ba:	80 34       	cpi	r24, 0x40	; 64
     7bc:	91 05       	cpc	r25, r1
     7be:	a1 05       	cpc	r26, r1
     7c0:	b1 05       	cpc	r27, r1
     7c2:	61 f4       	brne	.+24     	; 0x7dc <__mulsf3+0x1c8>
     7c4:	47 fd       	sbrc	r20, 7
     7c6:	0a c0       	rjmp	.+20     	; 0x7dc <__mulsf3+0x1c8>
     7c8:	e1 14       	cp	r14, r1
     7ca:	f1 04       	cpc	r15, r1
     7cc:	01 05       	cpc	r16, r1
     7ce:	11 05       	cpc	r17, r1
     7d0:	29 f0       	breq	.+10     	; 0x7dc <__mulsf3+0x1c8>
     7d2:	40 5c       	subi	r20, 0xC0	; 192
     7d4:	5f 4f       	sbci	r21, 0xFF	; 255
     7d6:	6f 4f       	sbci	r22, 0xFF	; 255
     7d8:	7f 4f       	sbci	r23, 0xFF	; 255
     7da:	40 78       	andi	r20, 0x80	; 128
     7dc:	1a 8e       	std	Y+26, r1	; 0x1a
     7de:	fe 17       	cp	r31, r30
     7e0:	11 f0       	breq	.+4      	; 0x7e6 <__mulsf3+0x1d2>
     7e2:	81 e0       	ldi	r24, 0x01	; 1
     7e4:	8a 8f       	std	Y+26, r24	; 0x1a
     7e6:	4d 8f       	std	Y+29, r20	; 0x1d
     7e8:	5e 8f       	std	Y+30, r21	; 0x1e
     7ea:	6f 8f       	std	Y+31, r22	; 0x1f
     7ec:	78 a3       	std	Y+32, r23	; 0x20
     7ee:	83 e0       	ldi	r24, 0x03	; 3
     7f0:	89 8f       	std	Y+25, r24	; 0x19
     7f2:	ce 01       	movw	r24, r28
     7f4:	49 96       	adiw	r24, 0x19	; 25
     7f6:	3e d2       	rcall	.+1148   	; 0xc74 <__pack_f>
     7f8:	a0 96       	adiw	r28, 0x20	; 32
     7fa:	e2 e1       	ldi	r30, 0x12	; 18
     7fc:	fd c3       	rjmp	.+2042   	; 0xff8 <__epilogue_restores__>

000007fe <__divsf3>:
     7fe:	a8 e1       	ldi	r26, 0x18	; 24
     800:	b0 e0       	ldi	r27, 0x00	; 0
     802:	e4 e0       	ldi	r30, 0x04	; 4
     804:	f4 e0       	ldi	r31, 0x04	; 4
     806:	e4 c3       	rjmp	.+1992   	; 0xfd0 <__prologue_saves__+0x10>
     808:	69 83       	std	Y+1, r22	; 0x01
     80a:	7a 83       	std	Y+2, r23	; 0x02
     80c:	8b 83       	std	Y+3, r24	; 0x03
     80e:	9c 83       	std	Y+4, r25	; 0x04
     810:	2d 83       	std	Y+5, r18	; 0x05
     812:	3e 83       	std	Y+6, r19	; 0x06
     814:	4f 83       	std	Y+7, r20	; 0x07
     816:	58 87       	std	Y+8, r21	; 0x08
     818:	b9 e0       	ldi	r27, 0x09	; 9
     81a:	eb 2e       	mov	r14, r27
     81c:	f1 2c       	mov	r15, r1
     81e:	ec 0e       	add	r14, r28
     820:	fd 1e       	adc	r15, r29
     822:	b7 01       	movw	r22, r14
     824:	ce 01       	movw	r24, r28
     826:	01 96       	adiw	r24, 0x01	; 1
     828:	fa d2       	rcall	.+1524   	; 0xe1e <__unpack_f>
     82a:	8e 01       	movw	r16, r28
     82c:	0f 5e       	subi	r16, 0xEF	; 239
     82e:	1f 4f       	sbci	r17, 0xFF	; 255
     830:	b8 01       	movw	r22, r16
     832:	ce 01       	movw	r24, r28
     834:	05 96       	adiw	r24, 0x05	; 5
     836:	f3 d2       	rcall	.+1510   	; 0xe1e <__unpack_f>
     838:	29 85       	ldd	r18, Y+9	; 0x09
     83a:	22 30       	cpi	r18, 0x02	; 2
     83c:	08 f4       	brcc	.+2      	; 0x840 <__divsf3+0x42>
     83e:	7c c0       	rjmp	.+248    	; 0x938 <__divsf3+0x13a>
     840:	39 89       	ldd	r19, Y+17	; 0x11
     842:	32 30       	cpi	r19, 0x02	; 2
     844:	10 f4       	brcc	.+4      	; 0x84a <__divsf3+0x4c>
     846:	b8 01       	movw	r22, r16
     848:	7a c0       	rjmp	.+244    	; 0x93e <__divsf3+0x140>
     84a:	8a 85       	ldd	r24, Y+10	; 0x0a
     84c:	9a 89       	ldd	r25, Y+18	; 0x12
     84e:	89 27       	eor	r24, r25
     850:	8a 87       	std	Y+10, r24	; 0x0a
     852:	24 30       	cpi	r18, 0x04	; 4
     854:	11 f0       	breq	.+4      	; 0x85a <__divsf3+0x5c>
     856:	22 30       	cpi	r18, 0x02	; 2
     858:	31 f4       	brne	.+12     	; 0x866 <__divsf3+0x68>
     85a:	23 17       	cp	r18, r19
     85c:	09 f0       	breq	.+2      	; 0x860 <__divsf3+0x62>
     85e:	6c c0       	rjmp	.+216    	; 0x938 <__divsf3+0x13a>
     860:	60 e6       	ldi	r22, 0x60	; 96
     862:	70 e0       	ldi	r23, 0x00	; 0
     864:	6c c0       	rjmp	.+216    	; 0x93e <__divsf3+0x140>
     866:	34 30       	cpi	r19, 0x04	; 4
     868:	39 f4       	brne	.+14     	; 0x878 <__divsf3+0x7a>
     86a:	1d 86       	std	Y+13, r1	; 0x0d
     86c:	1e 86       	std	Y+14, r1	; 0x0e
     86e:	1f 86       	std	Y+15, r1	; 0x0f
     870:	18 8a       	std	Y+16, r1	; 0x10
     872:	1c 86       	std	Y+12, r1	; 0x0c
     874:	1b 86       	std	Y+11, r1	; 0x0b
     876:	04 c0       	rjmp	.+8      	; 0x880 <__divsf3+0x82>
     878:	32 30       	cpi	r19, 0x02	; 2
     87a:	21 f4       	brne	.+8      	; 0x884 <__divsf3+0x86>
     87c:	84 e0       	ldi	r24, 0x04	; 4
     87e:	89 87       	std	Y+9, r24	; 0x09
     880:	b7 01       	movw	r22, r14
     882:	5d c0       	rjmp	.+186    	; 0x93e <__divsf3+0x140>
     884:	2b 85       	ldd	r18, Y+11	; 0x0b
     886:	3c 85       	ldd	r19, Y+12	; 0x0c
     888:	8b 89       	ldd	r24, Y+19	; 0x13
     88a:	9c 89       	ldd	r25, Y+20	; 0x14
     88c:	28 1b       	sub	r18, r24
     88e:	39 0b       	sbc	r19, r25
     890:	3c 87       	std	Y+12, r19	; 0x0c
     892:	2b 87       	std	Y+11, r18	; 0x0b
     894:	ed 84       	ldd	r14, Y+13	; 0x0d
     896:	fe 84       	ldd	r15, Y+14	; 0x0e
     898:	0f 85       	ldd	r16, Y+15	; 0x0f
     89a:	18 89       	ldd	r17, Y+16	; 0x10
     89c:	ad 88       	ldd	r10, Y+21	; 0x15
     89e:	be 88       	ldd	r11, Y+22	; 0x16
     8a0:	cf 88       	ldd	r12, Y+23	; 0x17
     8a2:	d8 8c       	ldd	r13, Y+24	; 0x18
     8a4:	ea 14       	cp	r14, r10
     8a6:	fb 04       	cpc	r15, r11
     8a8:	0c 05       	cpc	r16, r12
     8aa:	1d 05       	cpc	r17, r13
     8ac:	40 f4       	brcc	.+16     	; 0x8be <__divsf3+0xc0>
     8ae:	ee 0c       	add	r14, r14
     8b0:	ff 1c       	adc	r15, r15
     8b2:	00 1f       	adc	r16, r16
     8b4:	11 1f       	adc	r17, r17
     8b6:	21 50       	subi	r18, 0x01	; 1
     8b8:	30 40       	sbci	r19, 0x00	; 0
     8ba:	3c 87       	std	Y+12, r19	; 0x0c
     8bc:	2b 87       	std	Y+11, r18	; 0x0b
     8be:	20 e0       	ldi	r18, 0x00	; 0
     8c0:	30 e0       	ldi	r19, 0x00	; 0
     8c2:	40 e0       	ldi	r20, 0x00	; 0
     8c4:	50 e0       	ldi	r21, 0x00	; 0
     8c6:	80 e0       	ldi	r24, 0x00	; 0
     8c8:	90 e0       	ldi	r25, 0x00	; 0
     8ca:	a0 e0       	ldi	r26, 0x00	; 0
     8cc:	b0 e4       	ldi	r27, 0x40	; 64
     8ce:	6f e1       	ldi	r22, 0x1F	; 31
     8d0:	70 e0       	ldi	r23, 0x00	; 0
     8d2:	ea 14       	cp	r14, r10
     8d4:	fb 04       	cpc	r15, r11
     8d6:	0c 05       	cpc	r16, r12
     8d8:	1d 05       	cpc	r17, r13
     8da:	40 f0       	brcs	.+16     	; 0x8ec <__divsf3+0xee>
     8dc:	28 2b       	or	r18, r24
     8de:	39 2b       	or	r19, r25
     8e0:	4a 2b       	or	r20, r26
     8e2:	5b 2b       	or	r21, r27
     8e4:	ea 18       	sub	r14, r10
     8e6:	fb 08       	sbc	r15, r11
     8e8:	0c 09       	sbc	r16, r12
     8ea:	1d 09       	sbc	r17, r13
     8ec:	b6 95       	lsr	r27
     8ee:	a7 95       	ror	r26
     8f0:	97 95       	ror	r25
     8f2:	87 95       	ror	r24
     8f4:	ee 0c       	add	r14, r14
     8f6:	ff 1c       	adc	r15, r15
     8f8:	00 1f       	adc	r16, r16
     8fa:	11 1f       	adc	r17, r17
     8fc:	61 50       	subi	r22, 0x01	; 1
     8fe:	70 40       	sbci	r23, 0x00	; 0
     900:	41 f7       	brne	.-48     	; 0x8d2 <__divsf3+0xd4>
     902:	da 01       	movw	r26, r20
     904:	c9 01       	movw	r24, r18
     906:	8f 77       	andi	r24, 0x7F	; 127
     908:	90 70       	andi	r25, 0x00	; 0
     90a:	a0 70       	andi	r26, 0x00	; 0
     90c:	b0 70       	andi	r27, 0x00	; 0
     90e:	80 34       	cpi	r24, 0x40	; 64
     910:	91 05       	cpc	r25, r1
     912:	a1 05       	cpc	r26, r1
     914:	b1 05       	cpc	r27, r1
     916:	61 f4       	brne	.+24     	; 0x930 <__divsf3+0x132>
     918:	27 fd       	sbrc	r18, 7
     91a:	0a c0       	rjmp	.+20     	; 0x930 <__divsf3+0x132>
     91c:	e1 14       	cp	r14, r1
     91e:	f1 04       	cpc	r15, r1
     920:	01 05       	cpc	r16, r1
     922:	11 05       	cpc	r17, r1
     924:	29 f0       	breq	.+10     	; 0x930 <__divsf3+0x132>
     926:	20 5c       	subi	r18, 0xC0	; 192
     928:	3f 4f       	sbci	r19, 0xFF	; 255
     92a:	4f 4f       	sbci	r20, 0xFF	; 255
     92c:	5f 4f       	sbci	r21, 0xFF	; 255
     92e:	20 78       	andi	r18, 0x80	; 128
     930:	2d 87       	std	Y+13, r18	; 0x0d
     932:	3e 87       	std	Y+14, r19	; 0x0e
     934:	4f 87       	std	Y+15, r20	; 0x0f
     936:	58 8b       	std	Y+16, r21	; 0x10
     938:	be 01       	movw	r22, r28
     93a:	67 5f       	subi	r22, 0xF7	; 247
     93c:	7f 4f       	sbci	r23, 0xFF	; 255
     93e:	cb 01       	movw	r24, r22
     940:	99 d1       	rcall	.+818    	; 0xc74 <__pack_f>
     942:	68 96       	adiw	r28, 0x18	; 24
     944:	ea e0       	ldi	r30, 0x0A	; 10
     946:	60 c3       	rjmp	.+1728   	; 0x1008 <__epilogue_restores__+0x10>

00000948 <__gtsf2>:
     948:	a8 e1       	ldi	r26, 0x18	; 24
     94a:	b0 e0       	ldi	r27, 0x00	; 0
     94c:	e9 ea       	ldi	r30, 0xA9	; 169
     94e:	f4 e0       	ldi	r31, 0x04	; 4
     950:	43 c3       	rjmp	.+1670   	; 0xfd8 <__prologue_saves__+0x18>
     952:	69 83       	std	Y+1, r22	; 0x01
     954:	7a 83       	std	Y+2, r23	; 0x02
     956:	8b 83       	std	Y+3, r24	; 0x03
     958:	9c 83       	std	Y+4, r25	; 0x04
     95a:	2d 83       	std	Y+5, r18	; 0x05
     95c:	3e 83       	std	Y+6, r19	; 0x06
     95e:	4f 83       	std	Y+7, r20	; 0x07
     960:	58 87       	std	Y+8, r21	; 0x08
     962:	89 e0       	ldi	r24, 0x09	; 9
     964:	e8 2e       	mov	r14, r24
     966:	f1 2c       	mov	r15, r1
     968:	ec 0e       	add	r14, r28
     96a:	fd 1e       	adc	r15, r29
     96c:	b7 01       	movw	r22, r14
     96e:	ce 01       	movw	r24, r28
     970:	01 96       	adiw	r24, 0x01	; 1
     972:	55 d2       	rcall	.+1194   	; 0xe1e <__unpack_f>
     974:	8e 01       	movw	r16, r28
     976:	0f 5e       	subi	r16, 0xEF	; 239
     978:	1f 4f       	sbci	r17, 0xFF	; 255
     97a:	b8 01       	movw	r22, r16
     97c:	ce 01       	movw	r24, r28
     97e:	05 96       	adiw	r24, 0x05	; 5
     980:	4e d2       	rcall	.+1180   	; 0xe1e <__unpack_f>
     982:	89 85       	ldd	r24, Y+9	; 0x09
     984:	82 30       	cpi	r24, 0x02	; 2
     986:	38 f0       	brcs	.+14     	; 0x996 <__gtsf2+0x4e>
     988:	89 89       	ldd	r24, Y+17	; 0x11
     98a:	82 30       	cpi	r24, 0x02	; 2
     98c:	20 f0       	brcs	.+8      	; 0x996 <__gtsf2+0x4e>
     98e:	b8 01       	movw	r22, r16
     990:	c7 01       	movw	r24, r14
     992:	bd d2       	rcall	.+1402   	; 0xf0e <__fpcmp_parts_f>
     994:	01 c0       	rjmp	.+2      	; 0x998 <__gtsf2+0x50>
     996:	8f ef       	ldi	r24, 0xFF	; 255
     998:	68 96       	adiw	r28, 0x18	; 24
     99a:	e6 e0       	ldi	r30, 0x06	; 6
     99c:	39 c3       	rjmp	.+1650   	; 0x1010 <__epilogue_restores__+0x18>

0000099e <__gesf2>:
     99e:	a8 e1       	ldi	r26, 0x18	; 24
     9a0:	b0 e0       	ldi	r27, 0x00	; 0
     9a2:	e4 ed       	ldi	r30, 0xD4	; 212
     9a4:	f4 e0       	ldi	r31, 0x04	; 4
     9a6:	18 c3       	rjmp	.+1584   	; 0xfd8 <__prologue_saves__+0x18>
     9a8:	69 83       	std	Y+1, r22	; 0x01
     9aa:	7a 83       	std	Y+2, r23	; 0x02
     9ac:	8b 83       	std	Y+3, r24	; 0x03
     9ae:	9c 83       	std	Y+4, r25	; 0x04
     9b0:	2d 83       	std	Y+5, r18	; 0x05
     9b2:	3e 83       	std	Y+6, r19	; 0x06
     9b4:	4f 83       	std	Y+7, r20	; 0x07
     9b6:	58 87       	std	Y+8, r21	; 0x08
     9b8:	89 e0       	ldi	r24, 0x09	; 9
     9ba:	e8 2e       	mov	r14, r24
     9bc:	f1 2c       	mov	r15, r1
     9be:	ec 0e       	add	r14, r28
     9c0:	fd 1e       	adc	r15, r29
     9c2:	b7 01       	movw	r22, r14
     9c4:	ce 01       	movw	r24, r28
     9c6:	01 96       	adiw	r24, 0x01	; 1
     9c8:	2a d2       	rcall	.+1108   	; 0xe1e <__unpack_f>
     9ca:	8e 01       	movw	r16, r28
     9cc:	0f 5e       	subi	r16, 0xEF	; 239
     9ce:	1f 4f       	sbci	r17, 0xFF	; 255
     9d0:	b8 01       	movw	r22, r16
     9d2:	ce 01       	movw	r24, r28
     9d4:	05 96       	adiw	r24, 0x05	; 5
     9d6:	23 d2       	rcall	.+1094   	; 0xe1e <__unpack_f>
     9d8:	89 85       	ldd	r24, Y+9	; 0x09
     9da:	82 30       	cpi	r24, 0x02	; 2
     9dc:	38 f0       	brcs	.+14     	; 0x9ec <__gesf2+0x4e>
     9de:	89 89       	ldd	r24, Y+17	; 0x11
     9e0:	82 30       	cpi	r24, 0x02	; 2
     9e2:	20 f0       	brcs	.+8      	; 0x9ec <__gesf2+0x4e>
     9e4:	b8 01       	movw	r22, r16
     9e6:	c7 01       	movw	r24, r14
     9e8:	92 d2       	rcall	.+1316   	; 0xf0e <__fpcmp_parts_f>
     9ea:	01 c0       	rjmp	.+2      	; 0x9ee <__gesf2+0x50>
     9ec:	8f ef       	ldi	r24, 0xFF	; 255
     9ee:	68 96       	adiw	r28, 0x18	; 24
     9f0:	e6 e0       	ldi	r30, 0x06	; 6
     9f2:	0e c3       	rjmp	.+1564   	; 0x1010 <__epilogue_restores__+0x18>

000009f4 <__ltsf2>:
     9f4:	a8 e1       	ldi	r26, 0x18	; 24
     9f6:	b0 e0       	ldi	r27, 0x00	; 0
     9f8:	ef ef       	ldi	r30, 0xFF	; 255
     9fa:	f4 e0       	ldi	r31, 0x04	; 4
     9fc:	ed c2       	rjmp	.+1498   	; 0xfd8 <__prologue_saves__+0x18>
     9fe:	69 83       	std	Y+1, r22	; 0x01
     a00:	7a 83       	std	Y+2, r23	; 0x02
     a02:	8b 83       	std	Y+3, r24	; 0x03
     a04:	9c 83       	std	Y+4, r25	; 0x04
     a06:	2d 83       	std	Y+5, r18	; 0x05
     a08:	3e 83       	std	Y+6, r19	; 0x06
     a0a:	4f 83       	std	Y+7, r20	; 0x07
     a0c:	58 87       	std	Y+8, r21	; 0x08
     a0e:	89 e0       	ldi	r24, 0x09	; 9
     a10:	e8 2e       	mov	r14, r24
     a12:	f1 2c       	mov	r15, r1
     a14:	ec 0e       	add	r14, r28
     a16:	fd 1e       	adc	r15, r29
     a18:	b7 01       	movw	r22, r14
     a1a:	ce 01       	movw	r24, r28
     a1c:	01 96       	adiw	r24, 0x01	; 1
     a1e:	ff d1       	rcall	.+1022   	; 0xe1e <__unpack_f>
     a20:	8e 01       	movw	r16, r28
     a22:	0f 5e       	subi	r16, 0xEF	; 239
     a24:	1f 4f       	sbci	r17, 0xFF	; 255
     a26:	b8 01       	movw	r22, r16
     a28:	ce 01       	movw	r24, r28
     a2a:	05 96       	adiw	r24, 0x05	; 5
     a2c:	f8 d1       	rcall	.+1008   	; 0xe1e <__unpack_f>
     a2e:	89 85       	ldd	r24, Y+9	; 0x09
     a30:	82 30       	cpi	r24, 0x02	; 2
     a32:	38 f0       	brcs	.+14     	; 0xa42 <__ltsf2+0x4e>
     a34:	89 89       	ldd	r24, Y+17	; 0x11
     a36:	82 30       	cpi	r24, 0x02	; 2
     a38:	20 f0       	brcs	.+8      	; 0xa42 <__ltsf2+0x4e>
     a3a:	b8 01       	movw	r22, r16
     a3c:	c7 01       	movw	r24, r14
     a3e:	67 d2       	rcall	.+1230   	; 0xf0e <__fpcmp_parts_f>
     a40:	01 c0       	rjmp	.+2      	; 0xa44 <__ltsf2+0x50>
     a42:	81 e0       	ldi	r24, 0x01	; 1
     a44:	68 96       	adiw	r28, 0x18	; 24
     a46:	e6 e0       	ldi	r30, 0x06	; 6
     a48:	e3 c2       	rjmp	.+1478   	; 0x1010 <__epilogue_restores__+0x18>

00000a4a <__fixsfsi>:
     a4a:	ac e0       	ldi	r26, 0x0C	; 12
     a4c:	b0 e0       	ldi	r27, 0x00	; 0
     a4e:	ea e2       	ldi	r30, 0x2A	; 42
     a50:	f5 e0       	ldi	r31, 0x05	; 5
     a52:	c6 c2       	rjmp	.+1420   	; 0xfe0 <__prologue_saves__+0x20>
     a54:	69 83       	std	Y+1, r22	; 0x01
     a56:	7a 83       	std	Y+2, r23	; 0x02
     a58:	8b 83       	std	Y+3, r24	; 0x03
     a5a:	9c 83       	std	Y+4, r25	; 0x04
     a5c:	be 01       	movw	r22, r28
     a5e:	6b 5f       	subi	r22, 0xFB	; 251
     a60:	7f 4f       	sbci	r23, 0xFF	; 255
     a62:	ce 01       	movw	r24, r28
     a64:	01 96       	adiw	r24, 0x01	; 1
     a66:	db d1       	rcall	.+950    	; 0xe1e <__unpack_f>
     a68:	8d 81       	ldd	r24, Y+5	; 0x05
     a6a:	82 30       	cpi	r24, 0x02	; 2
     a6c:	61 f1       	breq	.+88     	; 0xac6 <__fixsfsi+0x7c>
     a6e:	82 30       	cpi	r24, 0x02	; 2
     a70:	50 f1       	brcs	.+84     	; 0xac6 <__fixsfsi+0x7c>
     a72:	84 30       	cpi	r24, 0x04	; 4
     a74:	21 f4       	brne	.+8      	; 0xa7e <__fixsfsi+0x34>
     a76:	8e 81       	ldd	r24, Y+6	; 0x06
     a78:	88 23       	and	r24, r24
     a7a:	51 f1       	breq	.+84     	; 0xad0 <__fixsfsi+0x86>
     a7c:	2e c0       	rjmp	.+92     	; 0xada <__fixsfsi+0x90>
     a7e:	2f 81       	ldd	r18, Y+7	; 0x07
     a80:	38 85       	ldd	r19, Y+8	; 0x08
     a82:	37 fd       	sbrc	r19, 7
     a84:	20 c0       	rjmp	.+64     	; 0xac6 <__fixsfsi+0x7c>
     a86:	6e 81       	ldd	r22, Y+6	; 0x06
     a88:	2f 31       	cpi	r18, 0x1F	; 31
     a8a:	31 05       	cpc	r19, r1
     a8c:	1c f0       	brlt	.+6      	; 0xa94 <__fixsfsi+0x4a>
     a8e:	66 23       	and	r22, r22
     a90:	f9 f0       	breq	.+62     	; 0xad0 <__fixsfsi+0x86>
     a92:	23 c0       	rjmp	.+70     	; 0xada <__fixsfsi+0x90>
     a94:	8e e1       	ldi	r24, 0x1E	; 30
     a96:	90 e0       	ldi	r25, 0x00	; 0
     a98:	82 1b       	sub	r24, r18
     a9a:	93 0b       	sbc	r25, r19
     a9c:	29 85       	ldd	r18, Y+9	; 0x09
     a9e:	3a 85       	ldd	r19, Y+10	; 0x0a
     aa0:	4b 85       	ldd	r20, Y+11	; 0x0b
     aa2:	5c 85       	ldd	r21, Y+12	; 0x0c
     aa4:	04 c0       	rjmp	.+8      	; 0xaae <__fixsfsi+0x64>
     aa6:	56 95       	lsr	r21
     aa8:	47 95       	ror	r20
     aaa:	37 95       	ror	r19
     aac:	27 95       	ror	r18
     aae:	8a 95       	dec	r24
     ab0:	d2 f7       	brpl	.-12     	; 0xaa6 <__fixsfsi+0x5c>
     ab2:	66 23       	and	r22, r22
     ab4:	b1 f0       	breq	.+44     	; 0xae2 <__fixsfsi+0x98>
     ab6:	50 95       	com	r21
     ab8:	40 95       	com	r20
     aba:	30 95       	com	r19
     abc:	21 95       	neg	r18
     abe:	3f 4f       	sbci	r19, 0xFF	; 255
     ac0:	4f 4f       	sbci	r20, 0xFF	; 255
     ac2:	5f 4f       	sbci	r21, 0xFF	; 255
     ac4:	0e c0       	rjmp	.+28     	; 0xae2 <__fixsfsi+0x98>
     ac6:	20 e0       	ldi	r18, 0x00	; 0
     ac8:	30 e0       	ldi	r19, 0x00	; 0
     aca:	40 e0       	ldi	r20, 0x00	; 0
     acc:	50 e0       	ldi	r21, 0x00	; 0
     ace:	09 c0       	rjmp	.+18     	; 0xae2 <__fixsfsi+0x98>
     ad0:	2f ef       	ldi	r18, 0xFF	; 255
     ad2:	3f ef       	ldi	r19, 0xFF	; 255
     ad4:	4f ef       	ldi	r20, 0xFF	; 255
     ad6:	5f e7       	ldi	r21, 0x7F	; 127
     ad8:	04 c0       	rjmp	.+8      	; 0xae2 <__fixsfsi+0x98>
     ada:	20 e0       	ldi	r18, 0x00	; 0
     adc:	30 e0       	ldi	r19, 0x00	; 0
     ade:	40 e0       	ldi	r20, 0x00	; 0
     ae0:	50 e8       	ldi	r21, 0x80	; 128
     ae2:	b9 01       	movw	r22, r18
     ae4:	ca 01       	movw	r24, r20
     ae6:	2c 96       	adiw	r28, 0x0c	; 12
     ae8:	e2 e0       	ldi	r30, 0x02	; 2
     aea:	96 c2       	rjmp	.+1324   	; 0x1018 <__epilogue_restores__+0x20>

00000aec <__floatunsisf>:
     aec:	a8 e0       	ldi	r26, 0x08	; 8
     aee:	b0 e0       	ldi	r27, 0x00	; 0
     af0:	eb e7       	ldi	r30, 0x7B	; 123
     af2:	f5 e0       	ldi	r31, 0x05	; 5
     af4:	6f c2       	rjmp	.+1246   	; 0xfd4 <__prologue_saves__+0x14>
     af6:	7b 01       	movw	r14, r22
     af8:	8c 01       	movw	r16, r24
     afa:	61 15       	cp	r22, r1
     afc:	71 05       	cpc	r23, r1
     afe:	81 05       	cpc	r24, r1
     b00:	91 05       	cpc	r25, r1
     b02:	19 f4       	brne	.+6      	; 0xb0a <__floatunsisf+0x1e>
     b04:	82 e0       	ldi	r24, 0x02	; 2
     b06:	89 83       	std	Y+1, r24	; 0x01
     b08:	5f c0       	rjmp	.+190    	; 0xbc8 <__floatunsisf+0xdc>
     b0a:	83 e0       	ldi	r24, 0x03	; 3
     b0c:	89 83       	std	Y+1, r24	; 0x01
     b0e:	8e e1       	ldi	r24, 0x1E	; 30
     b10:	c8 2e       	mov	r12, r24
     b12:	d1 2c       	mov	r13, r1
     b14:	dc 82       	std	Y+4, r13	; 0x04
     b16:	cb 82       	std	Y+3, r12	; 0x03
     b18:	ed 82       	std	Y+5, r14	; 0x05
     b1a:	fe 82       	std	Y+6, r15	; 0x06
     b1c:	0f 83       	std	Y+7, r16	; 0x07
     b1e:	18 87       	std	Y+8, r17	; 0x08
     b20:	c8 01       	movw	r24, r16
     b22:	b7 01       	movw	r22, r14
     b24:	58 d0       	rcall	.+176    	; 0xbd6 <__clzsi2>
     b26:	bc 01       	movw	r22, r24
     b28:	61 50       	subi	r22, 0x01	; 1
     b2a:	70 40       	sbci	r23, 0x00	; 0
     b2c:	77 ff       	sbrs	r23, 7
     b2e:	39 c0       	rjmp	.+114    	; 0xba2 <__floatunsisf+0xb6>
     b30:	ee 27       	eor	r30, r30
     b32:	ff 27       	eor	r31, r31
     b34:	e6 1b       	sub	r30, r22
     b36:	f7 0b       	sbc	r31, r23
     b38:	20 e0       	ldi	r18, 0x00	; 0
     b3a:	30 e0       	ldi	r19, 0x00	; 0
     b3c:	40 e0       	ldi	r20, 0x00	; 0
     b3e:	50 e0       	ldi	r21, 0x00	; 0
     b40:	81 e0       	ldi	r24, 0x01	; 1
     b42:	90 e0       	ldi	r25, 0x00	; 0
     b44:	a0 e0       	ldi	r26, 0x00	; 0
     b46:	b0 e0       	ldi	r27, 0x00	; 0
     b48:	0e 2e       	mov	r0, r30
     b4a:	04 c0       	rjmp	.+8      	; 0xb54 <__floatunsisf+0x68>
     b4c:	88 0f       	add	r24, r24
     b4e:	99 1f       	adc	r25, r25
     b50:	aa 1f       	adc	r26, r26
     b52:	bb 1f       	adc	r27, r27
     b54:	0a 94       	dec	r0
     b56:	d2 f7       	brpl	.-12     	; 0xb4c <__floatunsisf+0x60>
     b58:	01 97       	sbiw	r24, 0x01	; 1
     b5a:	a1 09       	sbc	r26, r1
     b5c:	b1 09       	sbc	r27, r1
     b5e:	8e 21       	and	r24, r14
     b60:	9f 21       	and	r25, r15
     b62:	a0 23       	and	r26, r16
     b64:	b1 23       	and	r27, r17
     b66:	00 97       	sbiw	r24, 0x00	; 0
     b68:	a1 05       	cpc	r26, r1
     b6a:	b1 05       	cpc	r27, r1
     b6c:	21 f0       	breq	.+8      	; 0xb76 <__floatunsisf+0x8a>
     b6e:	21 e0       	ldi	r18, 0x01	; 1
     b70:	30 e0       	ldi	r19, 0x00	; 0
     b72:	40 e0       	ldi	r20, 0x00	; 0
     b74:	50 e0       	ldi	r21, 0x00	; 0
     b76:	04 c0       	rjmp	.+8      	; 0xb80 <__floatunsisf+0x94>
     b78:	16 95       	lsr	r17
     b7a:	07 95       	ror	r16
     b7c:	f7 94       	ror	r15
     b7e:	e7 94       	ror	r14
     b80:	ea 95       	dec	r30
     b82:	d2 f7       	brpl	.-12     	; 0xb78 <__floatunsisf+0x8c>
     b84:	2e 29       	or	r18, r14
     b86:	3f 29       	or	r19, r15
     b88:	40 2b       	or	r20, r16
     b8a:	51 2b       	or	r21, r17
     b8c:	2d 83       	std	Y+5, r18	; 0x05
     b8e:	3e 83       	std	Y+6, r19	; 0x06
     b90:	4f 83       	std	Y+7, r20	; 0x07
     b92:	58 87       	std	Y+8, r21	; 0x08
     b94:	8e e1       	ldi	r24, 0x1E	; 30
     b96:	90 e0       	ldi	r25, 0x00	; 0
     b98:	86 1b       	sub	r24, r22
     b9a:	97 0b       	sbc	r25, r23
     b9c:	9c 83       	std	Y+4, r25	; 0x04
     b9e:	8b 83       	std	Y+3, r24	; 0x03
     ba0:	13 c0       	rjmp	.+38     	; 0xbc8 <__floatunsisf+0xdc>
     ba2:	61 15       	cp	r22, r1
     ba4:	71 05       	cpc	r23, r1
     ba6:	81 f0       	breq	.+32     	; 0xbc8 <__floatunsisf+0xdc>
     ba8:	06 2e       	mov	r0, r22
     baa:	04 c0       	rjmp	.+8      	; 0xbb4 <__floatunsisf+0xc8>
     bac:	ee 0c       	add	r14, r14
     bae:	ff 1c       	adc	r15, r15
     bb0:	00 1f       	adc	r16, r16
     bb2:	11 1f       	adc	r17, r17
     bb4:	0a 94       	dec	r0
     bb6:	d2 f7       	brpl	.-12     	; 0xbac <__floatunsisf+0xc0>
     bb8:	ed 82       	std	Y+5, r14	; 0x05
     bba:	fe 82       	std	Y+6, r15	; 0x06
     bbc:	0f 83       	std	Y+7, r16	; 0x07
     bbe:	18 87       	std	Y+8, r17	; 0x08
     bc0:	c6 1a       	sub	r12, r22
     bc2:	d7 0a       	sbc	r13, r23
     bc4:	dc 82       	std	Y+4, r13	; 0x04
     bc6:	cb 82       	std	Y+3, r12	; 0x03
     bc8:	1a 82       	std	Y+2, r1	; 0x02
     bca:	ce 01       	movw	r24, r28
     bcc:	01 96       	adiw	r24, 0x01	; 1
     bce:	52 d0       	rcall	.+164    	; 0xc74 <__pack_f>
     bd0:	28 96       	adiw	r28, 0x08	; 8
     bd2:	e8 e0       	ldi	r30, 0x08	; 8
     bd4:	1b c2       	rjmp	.+1078   	; 0x100c <__epilogue_restores__+0x14>

00000bd6 <__clzsi2>:
     bd6:	ef 92       	push	r14
     bd8:	ff 92       	push	r15
     bda:	0f 93       	push	r16
     bdc:	1f 93       	push	r17
     bde:	7b 01       	movw	r14, r22
     be0:	8c 01       	movw	r16, r24
     be2:	80 e0       	ldi	r24, 0x00	; 0
     be4:	e8 16       	cp	r14, r24
     be6:	80 e0       	ldi	r24, 0x00	; 0
     be8:	f8 06       	cpc	r15, r24
     bea:	81 e0       	ldi	r24, 0x01	; 1
     bec:	08 07       	cpc	r16, r24
     bee:	80 e0       	ldi	r24, 0x00	; 0
     bf0:	18 07       	cpc	r17, r24
     bf2:	88 f4       	brcc	.+34     	; 0xc16 <__clzsi2+0x40>
     bf4:	8f ef       	ldi	r24, 0xFF	; 255
     bf6:	e8 16       	cp	r14, r24
     bf8:	f1 04       	cpc	r15, r1
     bfa:	01 05       	cpc	r16, r1
     bfc:	11 05       	cpc	r17, r1
     bfe:	31 f0       	breq	.+12     	; 0xc0c <__clzsi2+0x36>
     c00:	28 f0       	brcs	.+10     	; 0xc0c <__clzsi2+0x36>
     c02:	88 e0       	ldi	r24, 0x08	; 8
     c04:	90 e0       	ldi	r25, 0x00	; 0
     c06:	a0 e0       	ldi	r26, 0x00	; 0
     c08:	b0 e0       	ldi	r27, 0x00	; 0
     c0a:	17 c0       	rjmp	.+46     	; 0xc3a <__clzsi2+0x64>
     c0c:	80 e0       	ldi	r24, 0x00	; 0
     c0e:	90 e0       	ldi	r25, 0x00	; 0
     c10:	a0 e0       	ldi	r26, 0x00	; 0
     c12:	b0 e0       	ldi	r27, 0x00	; 0
     c14:	12 c0       	rjmp	.+36     	; 0xc3a <__clzsi2+0x64>
     c16:	80 e0       	ldi	r24, 0x00	; 0
     c18:	e8 16       	cp	r14, r24
     c1a:	80 e0       	ldi	r24, 0x00	; 0
     c1c:	f8 06       	cpc	r15, r24
     c1e:	80 e0       	ldi	r24, 0x00	; 0
     c20:	08 07       	cpc	r16, r24
     c22:	81 e0       	ldi	r24, 0x01	; 1
     c24:	18 07       	cpc	r17, r24
     c26:	28 f0       	brcs	.+10     	; 0xc32 <__clzsi2+0x5c>
     c28:	88 e1       	ldi	r24, 0x18	; 24
     c2a:	90 e0       	ldi	r25, 0x00	; 0
     c2c:	a0 e0       	ldi	r26, 0x00	; 0
     c2e:	b0 e0       	ldi	r27, 0x00	; 0
     c30:	04 c0       	rjmp	.+8      	; 0xc3a <__clzsi2+0x64>
     c32:	80 e1       	ldi	r24, 0x10	; 16
     c34:	90 e0       	ldi	r25, 0x00	; 0
     c36:	a0 e0       	ldi	r26, 0x00	; 0
     c38:	b0 e0       	ldi	r27, 0x00	; 0
     c3a:	20 e2       	ldi	r18, 0x20	; 32
     c3c:	30 e0       	ldi	r19, 0x00	; 0
     c3e:	40 e0       	ldi	r20, 0x00	; 0
     c40:	50 e0       	ldi	r21, 0x00	; 0
     c42:	28 1b       	sub	r18, r24
     c44:	39 0b       	sbc	r19, r25
     c46:	4a 0b       	sbc	r20, r26
     c48:	5b 0b       	sbc	r21, r27
     c4a:	04 c0       	rjmp	.+8      	; 0xc54 <__clzsi2+0x7e>
     c4c:	16 95       	lsr	r17
     c4e:	07 95       	ror	r16
     c50:	f7 94       	ror	r15
     c52:	e7 94       	ror	r14
     c54:	8a 95       	dec	r24
     c56:	d2 f7       	brpl	.-12     	; 0xc4c <__clzsi2+0x76>
     c58:	f7 01       	movw	r30, r14
     c5a:	e8 59       	subi	r30, 0x98	; 152
     c5c:	ff 4f       	sbci	r31, 0xFF	; 255
     c5e:	80 81       	ld	r24, Z
     c60:	28 1b       	sub	r18, r24
     c62:	31 09       	sbc	r19, r1
     c64:	41 09       	sbc	r20, r1
     c66:	51 09       	sbc	r21, r1
     c68:	c9 01       	movw	r24, r18
     c6a:	1f 91       	pop	r17
     c6c:	0f 91       	pop	r16
     c6e:	ff 90       	pop	r15
     c70:	ef 90       	pop	r14
     c72:	08 95       	ret

00000c74 <__pack_f>:
     c74:	df 92       	push	r13
     c76:	ef 92       	push	r14
     c78:	ff 92       	push	r15
     c7a:	0f 93       	push	r16
     c7c:	1f 93       	push	r17
     c7e:	fc 01       	movw	r30, r24
     c80:	e4 80       	ldd	r14, Z+4	; 0x04
     c82:	f5 80       	ldd	r15, Z+5	; 0x05
     c84:	06 81       	ldd	r16, Z+6	; 0x06
     c86:	17 81       	ldd	r17, Z+7	; 0x07
     c88:	d1 80       	ldd	r13, Z+1	; 0x01
     c8a:	80 81       	ld	r24, Z
     c8c:	82 30       	cpi	r24, 0x02	; 2
     c8e:	48 f4       	brcc	.+18     	; 0xca2 <__pack_f+0x2e>
     c90:	80 e0       	ldi	r24, 0x00	; 0
     c92:	90 e0       	ldi	r25, 0x00	; 0
     c94:	a0 e1       	ldi	r26, 0x10	; 16
     c96:	b0 e0       	ldi	r27, 0x00	; 0
     c98:	e8 2a       	or	r14, r24
     c9a:	f9 2a       	or	r15, r25
     c9c:	0a 2b       	or	r16, r26
     c9e:	1b 2b       	or	r17, r27
     ca0:	a5 c0       	rjmp	.+330    	; 0xdec <__pack_f+0x178>
     ca2:	84 30       	cpi	r24, 0x04	; 4
     ca4:	09 f4       	brne	.+2      	; 0xca8 <__pack_f+0x34>
     ca6:	9f c0       	rjmp	.+318    	; 0xde6 <__pack_f+0x172>
     ca8:	82 30       	cpi	r24, 0x02	; 2
     caa:	21 f4       	brne	.+8      	; 0xcb4 <__pack_f+0x40>
     cac:	ee 24       	eor	r14, r14
     cae:	ff 24       	eor	r15, r15
     cb0:	87 01       	movw	r16, r14
     cb2:	05 c0       	rjmp	.+10     	; 0xcbe <__pack_f+0x4a>
     cb4:	e1 14       	cp	r14, r1
     cb6:	f1 04       	cpc	r15, r1
     cb8:	01 05       	cpc	r16, r1
     cba:	11 05       	cpc	r17, r1
     cbc:	19 f4       	brne	.+6      	; 0xcc4 <__pack_f+0x50>
     cbe:	e0 e0       	ldi	r30, 0x00	; 0
     cc0:	f0 e0       	ldi	r31, 0x00	; 0
     cc2:	96 c0       	rjmp	.+300    	; 0xdf0 <__pack_f+0x17c>
     cc4:	62 81       	ldd	r22, Z+2	; 0x02
     cc6:	73 81       	ldd	r23, Z+3	; 0x03
     cc8:	9f ef       	ldi	r25, 0xFF	; 255
     cca:	62 38       	cpi	r22, 0x82	; 130
     ccc:	79 07       	cpc	r23, r25
     cce:	0c f0       	brlt	.+2      	; 0xcd2 <__pack_f+0x5e>
     cd0:	5b c0       	rjmp	.+182    	; 0xd88 <__pack_f+0x114>
     cd2:	22 e8       	ldi	r18, 0x82	; 130
     cd4:	3f ef       	ldi	r19, 0xFF	; 255
     cd6:	26 1b       	sub	r18, r22
     cd8:	37 0b       	sbc	r19, r23
     cda:	2a 31       	cpi	r18, 0x1A	; 26
     cdc:	31 05       	cpc	r19, r1
     cde:	2c f0       	brlt	.+10     	; 0xcea <__pack_f+0x76>
     ce0:	20 e0       	ldi	r18, 0x00	; 0
     ce2:	30 e0       	ldi	r19, 0x00	; 0
     ce4:	40 e0       	ldi	r20, 0x00	; 0
     ce6:	50 e0       	ldi	r21, 0x00	; 0
     ce8:	2a c0       	rjmp	.+84     	; 0xd3e <__pack_f+0xca>
     cea:	b8 01       	movw	r22, r16
     cec:	a7 01       	movw	r20, r14
     cee:	02 2e       	mov	r0, r18
     cf0:	04 c0       	rjmp	.+8      	; 0xcfa <__pack_f+0x86>
     cf2:	76 95       	lsr	r23
     cf4:	67 95       	ror	r22
     cf6:	57 95       	ror	r21
     cf8:	47 95       	ror	r20
     cfa:	0a 94       	dec	r0
     cfc:	d2 f7       	brpl	.-12     	; 0xcf2 <__pack_f+0x7e>
     cfe:	81 e0       	ldi	r24, 0x01	; 1
     d00:	90 e0       	ldi	r25, 0x00	; 0
     d02:	a0 e0       	ldi	r26, 0x00	; 0
     d04:	b0 e0       	ldi	r27, 0x00	; 0
     d06:	04 c0       	rjmp	.+8      	; 0xd10 <__pack_f+0x9c>
     d08:	88 0f       	add	r24, r24
     d0a:	99 1f       	adc	r25, r25
     d0c:	aa 1f       	adc	r26, r26
     d0e:	bb 1f       	adc	r27, r27
     d10:	2a 95       	dec	r18
     d12:	d2 f7       	brpl	.-12     	; 0xd08 <__pack_f+0x94>
     d14:	01 97       	sbiw	r24, 0x01	; 1
     d16:	a1 09       	sbc	r26, r1
     d18:	b1 09       	sbc	r27, r1
     d1a:	8e 21       	and	r24, r14
     d1c:	9f 21       	and	r25, r15
     d1e:	a0 23       	and	r26, r16
     d20:	b1 23       	and	r27, r17
     d22:	00 97       	sbiw	r24, 0x00	; 0
     d24:	a1 05       	cpc	r26, r1
     d26:	b1 05       	cpc	r27, r1
     d28:	21 f0       	breq	.+8      	; 0xd32 <__pack_f+0xbe>
     d2a:	81 e0       	ldi	r24, 0x01	; 1
     d2c:	90 e0       	ldi	r25, 0x00	; 0
     d2e:	a0 e0       	ldi	r26, 0x00	; 0
     d30:	b0 e0       	ldi	r27, 0x00	; 0
     d32:	9a 01       	movw	r18, r20
     d34:	ab 01       	movw	r20, r22
     d36:	28 2b       	or	r18, r24
     d38:	39 2b       	or	r19, r25
     d3a:	4a 2b       	or	r20, r26
     d3c:	5b 2b       	or	r21, r27
     d3e:	da 01       	movw	r26, r20
     d40:	c9 01       	movw	r24, r18
     d42:	8f 77       	andi	r24, 0x7F	; 127
     d44:	90 70       	andi	r25, 0x00	; 0
     d46:	a0 70       	andi	r26, 0x00	; 0
     d48:	b0 70       	andi	r27, 0x00	; 0
     d4a:	80 34       	cpi	r24, 0x40	; 64
     d4c:	91 05       	cpc	r25, r1
     d4e:	a1 05       	cpc	r26, r1
     d50:	b1 05       	cpc	r27, r1
     d52:	39 f4       	brne	.+14     	; 0xd62 <__pack_f+0xee>
     d54:	27 ff       	sbrs	r18, 7
     d56:	09 c0       	rjmp	.+18     	; 0xd6a <__pack_f+0xf6>
     d58:	20 5c       	subi	r18, 0xC0	; 192
     d5a:	3f 4f       	sbci	r19, 0xFF	; 255
     d5c:	4f 4f       	sbci	r20, 0xFF	; 255
     d5e:	5f 4f       	sbci	r21, 0xFF	; 255
     d60:	04 c0       	rjmp	.+8      	; 0xd6a <__pack_f+0xf6>
     d62:	21 5c       	subi	r18, 0xC1	; 193
     d64:	3f 4f       	sbci	r19, 0xFF	; 255
     d66:	4f 4f       	sbci	r20, 0xFF	; 255
     d68:	5f 4f       	sbci	r21, 0xFF	; 255
     d6a:	e0 e0       	ldi	r30, 0x00	; 0
     d6c:	f0 e0       	ldi	r31, 0x00	; 0
     d6e:	20 30       	cpi	r18, 0x00	; 0
     d70:	a0 e0       	ldi	r26, 0x00	; 0
     d72:	3a 07       	cpc	r19, r26
     d74:	a0 e0       	ldi	r26, 0x00	; 0
     d76:	4a 07       	cpc	r20, r26
     d78:	a0 e4       	ldi	r26, 0x40	; 64
     d7a:	5a 07       	cpc	r21, r26
     d7c:	10 f0       	brcs	.+4      	; 0xd82 <__pack_f+0x10e>
     d7e:	e1 e0       	ldi	r30, 0x01	; 1
     d80:	f0 e0       	ldi	r31, 0x00	; 0
     d82:	79 01       	movw	r14, r18
     d84:	8a 01       	movw	r16, r20
     d86:	27 c0       	rjmp	.+78     	; 0xdd6 <__pack_f+0x162>
     d88:	60 38       	cpi	r22, 0x80	; 128
     d8a:	71 05       	cpc	r23, r1
     d8c:	64 f5       	brge	.+88     	; 0xde6 <__pack_f+0x172>
     d8e:	fb 01       	movw	r30, r22
     d90:	e1 58       	subi	r30, 0x81	; 129
     d92:	ff 4f       	sbci	r31, 0xFF	; 255
     d94:	d8 01       	movw	r26, r16
     d96:	c7 01       	movw	r24, r14
     d98:	8f 77       	andi	r24, 0x7F	; 127
     d9a:	90 70       	andi	r25, 0x00	; 0
     d9c:	a0 70       	andi	r26, 0x00	; 0
     d9e:	b0 70       	andi	r27, 0x00	; 0
     da0:	80 34       	cpi	r24, 0x40	; 64
     da2:	91 05       	cpc	r25, r1
     da4:	a1 05       	cpc	r26, r1
     da6:	b1 05       	cpc	r27, r1
     da8:	39 f4       	brne	.+14     	; 0xdb8 <__pack_f+0x144>
     daa:	e7 fe       	sbrs	r14, 7
     dac:	0d c0       	rjmp	.+26     	; 0xdc8 <__pack_f+0x154>
     dae:	80 e4       	ldi	r24, 0x40	; 64
     db0:	90 e0       	ldi	r25, 0x00	; 0
     db2:	a0 e0       	ldi	r26, 0x00	; 0
     db4:	b0 e0       	ldi	r27, 0x00	; 0
     db6:	04 c0       	rjmp	.+8      	; 0xdc0 <__pack_f+0x14c>
     db8:	8f e3       	ldi	r24, 0x3F	; 63
     dba:	90 e0       	ldi	r25, 0x00	; 0
     dbc:	a0 e0       	ldi	r26, 0x00	; 0
     dbe:	b0 e0       	ldi	r27, 0x00	; 0
     dc0:	e8 0e       	add	r14, r24
     dc2:	f9 1e       	adc	r15, r25
     dc4:	0a 1f       	adc	r16, r26
     dc6:	1b 1f       	adc	r17, r27
     dc8:	17 ff       	sbrs	r17, 7
     dca:	05 c0       	rjmp	.+10     	; 0xdd6 <__pack_f+0x162>
     dcc:	16 95       	lsr	r17
     dce:	07 95       	ror	r16
     dd0:	f7 94       	ror	r15
     dd2:	e7 94       	ror	r14
     dd4:	31 96       	adiw	r30, 0x01	; 1
     dd6:	87 e0       	ldi	r24, 0x07	; 7
     dd8:	16 95       	lsr	r17
     dda:	07 95       	ror	r16
     ddc:	f7 94       	ror	r15
     dde:	e7 94       	ror	r14
     de0:	8a 95       	dec	r24
     de2:	d1 f7       	brne	.-12     	; 0xdd8 <__pack_f+0x164>
     de4:	05 c0       	rjmp	.+10     	; 0xdf0 <__pack_f+0x17c>
     de6:	ee 24       	eor	r14, r14
     de8:	ff 24       	eor	r15, r15
     dea:	87 01       	movw	r16, r14
     dec:	ef ef       	ldi	r30, 0xFF	; 255
     dee:	f0 e0       	ldi	r31, 0x00	; 0
     df0:	6e 2f       	mov	r22, r30
     df2:	67 95       	ror	r22
     df4:	66 27       	eor	r22, r22
     df6:	67 95       	ror	r22
     df8:	90 2f       	mov	r25, r16
     dfa:	9f 77       	andi	r25, 0x7F	; 127
     dfc:	d7 94       	ror	r13
     dfe:	dd 24       	eor	r13, r13
     e00:	d7 94       	ror	r13
     e02:	8e 2f       	mov	r24, r30
     e04:	86 95       	lsr	r24
     e06:	49 2f       	mov	r20, r25
     e08:	46 2b       	or	r20, r22
     e0a:	58 2f       	mov	r21, r24
     e0c:	5d 29       	or	r21, r13
     e0e:	b7 01       	movw	r22, r14
     e10:	ca 01       	movw	r24, r20
     e12:	1f 91       	pop	r17
     e14:	0f 91       	pop	r16
     e16:	ff 90       	pop	r15
     e18:	ef 90       	pop	r14
     e1a:	df 90       	pop	r13
     e1c:	08 95       	ret

00000e1e <__unpack_f>:
     e1e:	fc 01       	movw	r30, r24
     e20:	db 01       	movw	r26, r22
     e22:	40 81       	ld	r20, Z
     e24:	51 81       	ldd	r21, Z+1	; 0x01
     e26:	22 81       	ldd	r18, Z+2	; 0x02
     e28:	62 2f       	mov	r22, r18
     e2a:	6f 77       	andi	r22, 0x7F	; 127
     e2c:	70 e0       	ldi	r23, 0x00	; 0
     e2e:	22 1f       	adc	r18, r18
     e30:	22 27       	eor	r18, r18
     e32:	22 1f       	adc	r18, r18
     e34:	93 81       	ldd	r25, Z+3	; 0x03
     e36:	89 2f       	mov	r24, r25
     e38:	88 0f       	add	r24, r24
     e3a:	82 2b       	or	r24, r18
     e3c:	28 2f       	mov	r18, r24
     e3e:	30 e0       	ldi	r19, 0x00	; 0
     e40:	99 1f       	adc	r25, r25
     e42:	99 27       	eor	r25, r25
     e44:	99 1f       	adc	r25, r25
     e46:	11 96       	adiw	r26, 0x01	; 1
     e48:	9c 93       	st	X, r25
     e4a:	11 97       	sbiw	r26, 0x01	; 1
     e4c:	21 15       	cp	r18, r1
     e4e:	31 05       	cpc	r19, r1
     e50:	a9 f5       	brne	.+106    	; 0xebc <__unpack_f+0x9e>
     e52:	41 15       	cp	r20, r1
     e54:	51 05       	cpc	r21, r1
     e56:	61 05       	cpc	r22, r1
     e58:	71 05       	cpc	r23, r1
     e5a:	11 f4       	brne	.+4      	; 0xe60 <__unpack_f+0x42>
     e5c:	82 e0       	ldi	r24, 0x02	; 2
     e5e:	37 c0       	rjmp	.+110    	; 0xece <__unpack_f+0xb0>
     e60:	82 e8       	ldi	r24, 0x82	; 130
     e62:	9f ef       	ldi	r25, 0xFF	; 255
     e64:	13 96       	adiw	r26, 0x03	; 3
     e66:	9c 93       	st	X, r25
     e68:	8e 93       	st	-X, r24
     e6a:	12 97       	sbiw	r26, 0x02	; 2
     e6c:	9a 01       	movw	r18, r20
     e6e:	ab 01       	movw	r20, r22
     e70:	67 e0       	ldi	r22, 0x07	; 7
     e72:	22 0f       	add	r18, r18
     e74:	33 1f       	adc	r19, r19
     e76:	44 1f       	adc	r20, r20
     e78:	55 1f       	adc	r21, r21
     e7a:	6a 95       	dec	r22
     e7c:	d1 f7       	brne	.-12     	; 0xe72 <__unpack_f+0x54>
     e7e:	83 e0       	ldi	r24, 0x03	; 3
     e80:	8c 93       	st	X, r24
     e82:	0d c0       	rjmp	.+26     	; 0xe9e <__unpack_f+0x80>
     e84:	22 0f       	add	r18, r18
     e86:	33 1f       	adc	r19, r19
     e88:	44 1f       	adc	r20, r20
     e8a:	55 1f       	adc	r21, r21
     e8c:	12 96       	adiw	r26, 0x02	; 2
     e8e:	8d 91       	ld	r24, X+
     e90:	9c 91       	ld	r25, X
     e92:	13 97       	sbiw	r26, 0x03	; 3
     e94:	01 97       	sbiw	r24, 0x01	; 1
     e96:	13 96       	adiw	r26, 0x03	; 3
     e98:	9c 93       	st	X, r25
     e9a:	8e 93       	st	-X, r24
     e9c:	12 97       	sbiw	r26, 0x02	; 2
     e9e:	20 30       	cpi	r18, 0x00	; 0
     ea0:	80 e0       	ldi	r24, 0x00	; 0
     ea2:	38 07       	cpc	r19, r24
     ea4:	80 e0       	ldi	r24, 0x00	; 0
     ea6:	48 07       	cpc	r20, r24
     ea8:	80 e4       	ldi	r24, 0x40	; 64
     eaa:	58 07       	cpc	r21, r24
     eac:	58 f3       	brcs	.-42     	; 0xe84 <__unpack_f+0x66>
     eae:	14 96       	adiw	r26, 0x04	; 4
     eb0:	2d 93       	st	X+, r18
     eb2:	3d 93       	st	X+, r19
     eb4:	4d 93       	st	X+, r20
     eb6:	5c 93       	st	X, r21
     eb8:	17 97       	sbiw	r26, 0x07	; 7
     eba:	08 95       	ret
     ebc:	2f 3f       	cpi	r18, 0xFF	; 255
     ebe:	31 05       	cpc	r19, r1
     ec0:	79 f4       	brne	.+30     	; 0xee0 <__unpack_f+0xc2>
     ec2:	41 15       	cp	r20, r1
     ec4:	51 05       	cpc	r21, r1
     ec6:	61 05       	cpc	r22, r1
     ec8:	71 05       	cpc	r23, r1
     eca:	19 f4       	brne	.+6      	; 0xed2 <__unpack_f+0xb4>
     ecc:	84 e0       	ldi	r24, 0x04	; 4
     ece:	8c 93       	st	X, r24
     ed0:	08 95       	ret
     ed2:	64 ff       	sbrs	r22, 4
     ed4:	03 c0       	rjmp	.+6      	; 0xedc <__unpack_f+0xbe>
     ed6:	81 e0       	ldi	r24, 0x01	; 1
     ed8:	8c 93       	st	X, r24
     eda:	12 c0       	rjmp	.+36     	; 0xf00 <__unpack_f+0xe2>
     edc:	1c 92       	st	X, r1
     ede:	10 c0       	rjmp	.+32     	; 0xf00 <__unpack_f+0xe2>
     ee0:	2f 57       	subi	r18, 0x7F	; 127
     ee2:	30 40       	sbci	r19, 0x00	; 0
     ee4:	13 96       	adiw	r26, 0x03	; 3
     ee6:	3c 93       	st	X, r19
     ee8:	2e 93       	st	-X, r18
     eea:	12 97       	sbiw	r26, 0x02	; 2
     eec:	83 e0       	ldi	r24, 0x03	; 3
     eee:	8c 93       	st	X, r24
     ef0:	87 e0       	ldi	r24, 0x07	; 7
     ef2:	44 0f       	add	r20, r20
     ef4:	55 1f       	adc	r21, r21
     ef6:	66 1f       	adc	r22, r22
     ef8:	77 1f       	adc	r23, r23
     efa:	8a 95       	dec	r24
     efc:	d1 f7       	brne	.-12     	; 0xef2 <__unpack_f+0xd4>
     efe:	70 64       	ori	r23, 0x40	; 64
     f00:	14 96       	adiw	r26, 0x04	; 4
     f02:	4d 93       	st	X+, r20
     f04:	5d 93       	st	X+, r21
     f06:	6d 93       	st	X+, r22
     f08:	7c 93       	st	X, r23
     f0a:	17 97       	sbiw	r26, 0x07	; 7
     f0c:	08 95       	ret

00000f0e <__fpcmp_parts_f>:
     f0e:	1f 93       	push	r17
     f10:	dc 01       	movw	r26, r24
     f12:	fb 01       	movw	r30, r22
     f14:	9c 91       	ld	r25, X
     f16:	92 30       	cpi	r25, 0x02	; 2
     f18:	08 f4       	brcc	.+2      	; 0xf1c <__fpcmp_parts_f+0xe>
     f1a:	47 c0       	rjmp	.+142    	; 0xfaa <__fpcmp_parts_f+0x9c>
     f1c:	80 81       	ld	r24, Z
     f1e:	82 30       	cpi	r24, 0x02	; 2
     f20:	08 f4       	brcc	.+2      	; 0xf24 <__fpcmp_parts_f+0x16>
     f22:	43 c0       	rjmp	.+134    	; 0xfaa <__fpcmp_parts_f+0x9c>
     f24:	94 30       	cpi	r25, 0x04	; 4
     f26:	51 f4       	brne	.+20     	; 0xf3c <__fpcmp_parts_f+0x2e>
     f28:	11 96       	adiw	r26, 0x01	; 1
     f2a:	1c 91       	ld	r17, X
     f2c:	84 30       	cpi	r24, 0x04	; 4
     f2e:	99 f5       	brne	.+102    	; 0xf96 <__fpcmp_parts_f+0x88>
     f30:	81 81       	ldd	r24, Z+1	; 0x01
     f32:	68 2f       	mov	r22, r24
     f34:	70 e0       	ldi	r23, 0x00	; 0
     f36:	61 1b       	sub	r22, r17
     f38:	71 09       	sbc	r23, r1
     f3a:	3f c0       	rjmp	.+126    	; 0xfba <__fpcmp_parts_f+0xac>
     f3c:	84 30       	cpi	r24, 0x04	; 4
     f3e:	21 f0       	breq	.+8      	; 0xf48 <__fpcmp_parts_f+0x3a>
     f40:	92 30       	cpi	r25, 0x02	; 2
     f42:	31 f4       	brne	.+12     	; 0xf50 <__fpcmp_parts_f+0x42>
     f44:	82 30       	cpi	r24, 0x02	; 2
     f46:	b9 f1       	breq	.+110    	; 0xfb6 <__fpcmp_parts_f+0xa8>
     f48:	81 81       	ldd	r24, Z+1	; 0x01
     f4a:	88 23       	and	r24, r24
     f4c:	89 f1       	breq	.+98     	; 0xfb0 <__fpcmp_parts_f+0xa2>
     f4e:	2d c0       	rjmp	.+90     	; 0xfaa <__fpcmp_parts_f+0x9c>
     f50:	11 96       	adiw	r26, 0x01	; 1
     f52:	1c 91       	ld	r17, X
     f54:	11 97       	sbiw	r26, 0x01	; 1
     f56:	82 30       	cpi	r24, 0x02	; 2
     f58:	f1 f0       	breq	.+60     	; 0xf96 <__fpcmp_parts_f+0x88>
     f5a:	81 81       	ldd	r24, Z+1	; 0x01
     f5c:	18 17       	cp	r17, r24
     f5e:	d9 f4       	brne	.+54     	; 0xf96 <__fpcmp_parts_f+0x88>
     f60:	12 96       	adiw	r26, 0x02	; 2
     f62:	2d 91       	ld	r18, X+
     f64:	3c 91       	ld	r19, X
     f66:	13 97       	sbiw	r26, 0x03	; 3
     f68:	82 81       	ldd	r24, Z+2	; 0x02
     f6a:	93 81       	ldd	r25, Z+3	; 0x03
     f6c:	82 17       	cp	r24, r18
     f6e:	93 07       	cpc	r25, r19
     f70:	94 f0       	brlt	.+36     	; 0xf96 <__fpcmp_parts_f+0x88>
     f72:	28 17       	cp	r18, r24
     f74:	39 07       	cpc	r19, r25
     f76:	bc f0       	brlt	.+46     	; 0xfa6 <__fpcmp_parts_f+0x98>
     f78:	14 96       	adiw	r26, 0x04	; 4
     f7a:	8d 91       	ld	r24, X+
     f7c:	9d 91       	ld	r25, X+
     f7e:	0d 90       	ld	r0, X+
     f80:	bc 91       	ld	r27, X
     f82:	a0 2d       	mov	r26, r0
     f84:	24 81       	ldd	r18, Z+4	; 0x04
     f86:	35 81       	ldd	r19, Z+5	; 0x05
     f88:	46 81       	ldd	r20, Z+6	; 0x06
     f8a:	57 81       	ldd	r21, Z+7	; 0x07
     f8c:	28 17       	cp	r18, r24
     f8e:	39 07       	cpc	r19, r25
     f90:	4a 07       	cpc	r20, r26
     f92:	5b 07       	cpc	r21, r27
     f94:	18 f4       	brcc	.+6      	; 0xf9c <__fpcmp_parts_f+0x8e>
     f96:	11 23       	and	r17, r17
     f98:	41 f0       	breq	.+16     	; 0xfaa <__fpcmp_parts_f+0x9c>
     f9a:	0a c0       	rjmp	.+20     	; 0xfb0 <__fpcmp_parts_f+0xa2>
     f9c:	82 17       	cp	r24, r18
     f9e:	93 07       	cpc	r25, r19
     fa0:	a4 07       	cpc	r26, r20
     fa2:	b5 07       	cpc	r27, r21
     fa4:	40 f4       	brcc	.+16     	; 0xfb6 <__fpcmp_parts_f+0xa8>
     fa6:	11 23       	and	r17, r17
     fa8:	19 f0       	breq	.+6      	; 0xfb0 <__fpcmp_parts_f+0xa2>
     faa:	61 e0       	ldi	r22, 0x01	; 1
     fac:	70 e0       	ldi	r23, 0x00	; 0
     fae:	05 c0       	rjmp	.+10     	; 0xfba <__fpcmp_parts_f+0xac>
     fb0:	6f ef       	ldi	r22, 0xFF	; 255
     fb2:	7f ef       	ldi	r23, 0xFF	; 255
     fb4:	02 c0       	rjmp	.+4      	; 0xfba <__fpcmp_parts_f+0xac>
     fb6:	60 e0       	ldi	r22, 0x00	; 0
     fb8:	70 e0       	ldi	r23, 0x00	; 0
     fba:	cb 01       	movw	r24, r22
     fbc:	1f 91       	pop	r17
     fbe:	08 95       	ret

00000fc0 <__prologue_saves__>:
     fc0:	2f 92       	push	r2
     fc2:	3f 92       	push	r3
     fc4:	4f 92       	push	r4
     fc6:	5f 92       	push	r5
     fc8:	6f 92       	push	r6
     fca:	7f 92       	push	r7
     fcc:	8f 92       	push	r8
     fce:	9f 92       	push	r9
     fd0:	af 92       	push	r10
     fd2:	bf 92       	push	r11
     fd4:	cf 92       	push	r12
     fd6:	df 92       	push	r13
     fd8:	ef 92       	push	r14
     fda:	ff 92       	push	r15
     fdc:	0f 93       	push	r16
     fde:	1f 93       	push	r17
     fe0:	cf 93       	push	r28
     fe2:	df 93       	push	r29
     fe4:	cd b7       	in	r28, 0x3d	; 61
     fe6:	de b7       	in	r29, 0x3e	; 62
     fe8:	ca 1b       	sub	r28, r26
     fea:	db 0b       	sbc	r29, r27
     fec:	0f b6       	in	r0, 0x3f	; 63
     fee:	f8 94       	cli
     ff0:	de bf       	out	0x3e, r29	; 62
     ff2:	0f be       	out	0x3f, r0	; 63
     ff4:	cd bf       	out	0x3d, r28	; 61
     ff6:	09 94       	ijmp

00000ff8 <__epilogue_restores__>:
     ff8:	2a 88       	ldd	r2, Y+18	; 0x12
     ffa:	39 88       	ldd	r3, Y+17	; 0x11
     ffc:	48 88       	ldd	r4, Y+16	; 0x10
     ffe:	5f 84       	ldd	r5, Y+15	; 0x0f
    1000:	6e 84       	ldd	r6, Y+14	; 0x0e
    1002:	7d 84       	ldd	r7, Y+13	; 0x0d
    1004:	8c 84       	ldd	r8, Y+12	; 0x0c
    1006:	9b 84       	ldd	r9, Y+11	; 0x0b
    1008:	aa 84       	ldd	r10, Y+10	; 0x0a
    100a:	b9 84       	ldd	r11, Y+9	; 0x09
    100c:	c8 84       	ldd	r12, Y+8	; 0x08
    100e:	df 80       	ldd	r13, Y+7	; 0x07
    1010:	ee 80       	ldd	r14, Y+6	; 0x06
    1012:	fd 80       	ldd	r15, Y+5	; 0x05
    1014:	0c 81       	ldd	r16, Y+4	; 0x04
    1016:	1b 81       	ldd	r17, Y+3	; 0x03
    1018:	aa 81       	ldd	r26, Y+2	; 0x02
    101a:	b9 81       	ldd	r27, Y+1	; 0x01
    101c:	ce 0f       	add	r28, r30
    101e:	d1 1d       	adc	r29, r1
    1020:	0f b6       	in	r0, 0x3f	; 63
    1022:	f8 94       	cli
    1024:	de bf       	out	0x3e, r29	; 62
    1026:	0f be       	out	0x3f, r0	; 63
    1028:	cd bf       	out	0x3d, r28	; 61
    102a:	ed 01       	movw	r28, r26
    102c:	08 95       	ret

0000102e <_exit>:
    102e:	f8 94       	cli

00001030 <__stop_program>:
    1030:	ff cf       	rjmp	.-2      	; 0x1030 <__stop_program>
